:020000040800F2
:100000002012002065010008BF1A0008ED19000841
:10001000BD1A0008AD0100080B1F00080000000019
:10002000000000000000000000000000E31A0008CB
:10003000DB01000800000000E11A0008E51A0008D2
:100040007F0100087F0100087F0100087F01000890
:100050007F0100087F0100087F0100087F01000880
:100060007F0100087F0100087F0100087F01000870
:100070007F010008B10100087F0100087F0100082E
:100080007F0100087F0100087F0100087F01000850
:100090007F0100087F0100087F0100087F01000840
:1000A0007F010008D91B00087F0100087F010008BC
:1000B0007F0100086D1C0008791C00087F01000802
:1000C0007F0100087F0100087F0100087F01000810
:1000D0007F0100087F0100087F0100087F01000800
:1000E0007F0100087F0100087F0100080000000078
:1000F0000000000000000000000000000000000000
:1001000000000000000000007F0100087F010008DF
:100110007F0100087F0100087F0100087F010008BF
:100120007F0100087F0100087F0100087F010008AF
:100130007F0100087F0100087F0100087F0100089F
:100140007F0100087F0100087F0100087F0100088F
:10015000DFF80CD000F018F8004800472D1F000809
:10016000201200200648804706480047FEE7FEE7C9
:10017000FEE7FEE7FEE7FEE7FEE7FEE7FEE7FEE757
:10018000851B000851010008064C074D06E0E06899
:1001900040F0010394E8070098471034AC42F6D3CE
:1001A000FFF7DAFF0C2000082C200008FEE7000013
:1001B000014800F015B80000E40D002010B50468F7
:1001C00063604368102B036803D099600068C260C5
:1001D00010BD9A600068C16010BD7047FEE7000066
:1001E0002DE9F05F0446F94AF84DF84EF74F0068E4
:1001F000DFF8D893DFF8D4A3DFF8D0B3D114783D7B
:10020000643E503F4FF4000E4FF4004C4FF4002872
:10021000A9F13C09AAF1280AABF1140B904221D9AB
:10022000EB4A1368A8420FD0B0420FD0B84213D0A7
:10023000484513D0504513D0584501D1724624E0AB
:10024000E34A083290423CD108221EE080221CE0A2
:10025000DF4A3032904239D10A4616E0624614E055
:10026000424612E0D94A803A1368A842ECD0B04224
:10027000ECD0B842F0D04845F0D05045F0D05845C9
:10028000DCD0D24A9042DBD10205134279D0026819
:10029000D243120775D4026822F008020260CB4AEA
:1002A0002068904232D9A84219D0B0421DD0B8423D
:1002B00028D0484523D0504523D058450BD171460E
:1002C00020E0C34A1C329042C2D1BFE7C04A443248
:1002D0009042C5D1C2E7BE4A0832904201D10821FE
:1002E00010E0BB4A1C32904201D180210AE0B84A9A
:1002F0003032904206D0B6494431884201D161463D
:1003000000E04146B248001D01602CE0A84214D034
:10031000B04218D0B84223D048451ED050451ED018
:10032000584501D171461BE0904202D14FF0006167
:1003300016E0A74A0832904201D1082110E0A44AF1
:100340001C32904201D180210AE0A14A3032904211
:1003500006D09F494431884201D1614600E04146C0
:100360009A4880384160606B40F00100606304206F
:1003700084F82100002084F82000216B09B1204678
:100380008847924A206811154FF4800E4FF4804C34
:100390004FF48028904221D98D4A1368A8420FD08B
:1003A000B0420FD0B84213D0484513D0504513D0B7
:1003B000584501D1724624E0854A083290423FD127
:1003C00004221EE040221CE0814A303290423CD19F
:1003D0000A4616E0624614E0424612E07B4A803A42
:1003E0001368A842ECD0B042ECD0B842F0D04845F7
:1003F000F0D05045F0D05845DCD0744A9042DBD163
:10040000C204134275D00268D243520771D4026805
:10041000920603D4026822F0040202606B4A20684C
:10042000904232D9A84219D0B0421DD0B84228D04B
:10043000484523D0504523D058450BD1714620E084
:10044000634A1C329042BFD1BCE7614A44329042B9
:10045000C2D1BFE75E4A0832904201D1042110E0C8
:100460005B4A1C32904201D140210AE0584A3032A6
:10047000904206D056494431884201D1614600E09D
:1004800041465348001D01602CE0A84214D0B04200
:1004900018D0B84223D048451ED050451ED05845EC
:1004A00001D171461BE0904202D14FF0806116E00D
:1004B000474A0832904201D1042110E0444A1C32DC
:1004C000904201D140210AE0414A3032904206D0A8
:1004D0003F494431884201D1614600E041463B48F2
:1004E00080384160112084F82100E16A09B120467A
:1004F0008847364A206851154FF4005C4FF4003E9F
:10050000904228D9324B1B68A84212D0B04213D077
:10051000B8421AD048451AD050451AD0584502D191
:100520004FF400182AE0DFF8A88008F108084045D9
:1005300044D14FF0020821E04FF020081EE0DFF820
:10054000908008F13008404544D1884616E0E046E6
:1005500014E0F04612E01D4B803B1B68A842E8D037
:10056000B042E9D0B842F0D04845F0D05045F0D084
:100570005845D5D09042D6D14FF0007813EA080FF5
:1005800070D00368DB439B077FD403689B0603D4CA
:10059000036823F0020303602068904239D9A8421F
:1005A00021D0B04225D0B8422FD048452AD050455E
:1005B0002AD0584513D14FF4001126E0DFF81080FF
:1005C00008F11C084045BAD1B6E70000800002409F
:1005D00000040240DFF8B8804045BAD1B7E72C4AA2
:1005E0003C3A904201D102210FE0294A283A904238
:1005F00001D1202109E0264A143A904205D024492D
:10060000884201D1614600E07146214840380160CE
:100610002CE0A84215D0B04219D0B84224D04845A9
:100620001ED050451FD0584502D14FF400111BE099
:10063000904202D14FF0007116E0154A3C3A9042C8
:1006400001D1022110E0124A283A904201D1202122
:100650000AE00F4A143A904206D00D49884202D16E
:10066000614601E011E071460A484160606B6063D9
:10067000012084F82100002084F82000A16A0029CC
:1006800003D02046BDE8F05F0847BDE8F09F0000BA
:10069000440402400000024070B520B190F82110DF
:1006A000002411B103E0012070BD80F82040022138
:1006B00080F8211003681A6843F6F0718A43D0E984
:1006C00001152943D0E90356354329434569294398
:1006D00085692943C5692943114319604463012190
:1006E00080F82110002070BD70B5044690F82000FD
:1006F000012823D0012084F82000022084F8210062
:100700002068056825F0010505602046FFF756FDC5
:100710002068016841F0020101602068016841F031
:10072000040101602068016841F00801016020684F
:10073000016841F001010160002070BD022070BD20
:1007400031B500F0E7F8044600F0E4F80099001B2A
:100750008842F9D338BD00002DE9F84FDFF890A1A9
:1007600000220AF1040B144601274FF00F090BF188
:10077000040E00BF0B6807FA04F52B40AB4274D19E
:10078000DFF870C14E68A6EB0C0866452BD00DDC77
:10079000032E34D005DC36B3012E19D0022E2FD112
:1007A0001BE0112E16D0122E2AD119E0B8F5881FA1
:1007B00019D006DCB8F5803F15D0B8F5801F1FD1E1
:1007C00011E0B8F5001F0ED0B8F5041F18D10AE0EB
:1007D000CA6815E0CA68121D12E0CA6808320FE044
:1007E000CA680C320CE08A682AB1012A4FF008026C
:1007F00003D0456104E0042202E0056100E000222C
:10080000FF2B01D8064601E000F104064FEA8405FB
:1008100001D9A5F12005D6F800C009FA05F82CEA9F
:10082000080C02FA05F54CEA050CC6F800C04D6844
:10083000ED0057D5304DAE6946F00106AE61AD69A9
:1008400024F0030605F0010500952C4D06EB050C80
:10085000DCF80850A6074FEA167809FA08F6B543FF
:10086000274EB04202D1002610E03BE0254EB042B8
:1008700001D101260AE0244EB04201D1022605E052
:10088000224EB04201D1032600E0042606FA08F603
:100890002E43CCF808604D68DAF80060ED03554649
:1008A00001D51E4300E09E432E604D68DBF80060DA
:1008B000AD035D4601D51E4300E09E432E604D68AA
:1008C000DEF80060ED02754601D51E4300E09E4350
:1008D0002E604D68AD020E4D2E6801D51E4300E01E
:1008E0009E432E60641C102CFFF444AFBDE8F88FCB
:1008F00000040140000011100010024000000140FF
:1009000000080140000C01400010014000140140AB
:100910000C040140014800687047000004000020FA
:1009200002480168491C0160704700000400002073
:10093000074810B5016841F010010160032000F084
:1009400087F8002000F006F800F016F8002010BD2F
:100950000020024010B5044600F050F94FF47A71BF
:10096000B0FBF1F000F038FD00222146501E00F0EF
:100970004FF8002010BD00001D4808B5816941F006
:1009800001018161806900F001000090032000F006
:100990005FF8002211466FF00B0000F039F80022DA
:1009A00011466FF00A0000F033F8002211466FF094
:1009B000090000F02DF800221146501F00F028F821
:1009C00000221146101F00F023F800221146901E4D
:1009D00000F01EF800221146501E00F019F80548DC
:1009E000416821F0E06141F08061416008BD000094
:1009F000001002400000014000F01F020121914060
:100A00004009800000F1E020C0F8001170470000AC
:100A1000F0B40E4B1B680C46C3F30223C3F1070569
:100A2000042D00D90425191D072901D2002300E057
:100A3000DB1E012606FA05F1491E214099409E4021
:100A4000761E16403143F0BC01F03AB80CED00E0E0
:100A5000064900F0070208684FF6FF03184040EA15
:100A60000220034A10430860704700000CED00E0CC
:100A70000000FA052DE9F047DFF8708105460E46C3
:100A8000D8F8000000F00700B0420CD2D8F80010EF
:100A900021F007013143C8F80010D8F8000000F039
:100AA0000700B04277D12878514C800705D560689F
:100AB000A96820F0F000084360602878C00759D08A
:100AC0006968012001290DD0022929D05FF00203B5
:100AD00093FAA3F2B2FA82F242F02002520904D051
:100AE000226803E04FF40033F2E7626A93FAA3F35B
:100AF000B3FA83F303F01F03984002424BD06068BF
:100B000020F0030008436060FFF704FF69680746B0
:100B100041F2883001290DD00229814617D025E005
:100B20004FF00073D4E700BFFFF7F4FEC11B494547
:100B300001D918E081466068C0F381000128F3D133
:100B400018E000BFFFF7E6FEC11B49450BD86068FF
:100B5000C0F381000228F5D10CE000BFFFF7DAFEF8
:100B6000C11B494502D90320BDE8F087606810F039
:100B70000C0FF3D1D8F80010404601F00701B14244
:100B80000BD9016821F0070131430160006800F0D2
:100B90000700B04201D00120E6E72878400705D5DC
:100BA0006068E96820F4E060084360602878000726
:100BB00006D56068296920F4605040EAC100606091
:100BC00000F022F86168F02292FAA2F201F0F0013E
:100BD000B2FA82F2D140074A515CC8400649086027
:100BE0000020FFF7B7FE0020BEE700000020024013
:100BF00000100240FC1F00080000002001480068AF
:100C00007047000000000020F0B52DA28AB007CA8E
:100C10008DE807002DA103AC0FC984E80F002F4910
:100C20004B682F4803F00C02042A02D0082A02D095
:100C30002C480AB0F0BD4FF4701595FAA5F403F4F2
:100C40007012B4FA84F4E2406E461DF80220DB0311
:100C500033D5CB6A0F2494FAA4F403F00F03B4FA4B
:100C600084F4E34003ACE45CCB6ADB0316D5CB6AC7
:100C7000F02797FAA7F703F0F003B7FA87F7C96AE6
:100C8000FB40AF1297FAA7F701F47061B7FA87F744
:100C9000F9405B1CB0FBF3F0891C4843B0FBF4F057
:100CA00095FAA5F350434FF45011B3FA83F3D940AA
:100CB000715C9142BDD14008BBE70B485043B8E797
:100CC00000000405060708090000000D01020304E6
:100CD00005060708090A0B0C0D0E0F100010024044
:100CE00040787D0100127A0000093D002DE9F84F9F
:100CF00004460078F74DC0074FF0010625D068681C
:100D00007704C0F38100012807D06868C0F3810030
:100D100002281BD16868C00318D597FAA7F0B0FA6B
:100D200080F040F02000400901D0286800E0686AA7
:100D300097FAA7F1B1FA81F101F01F0106FA01F16A
:100D400008425ED0A06800287BD05AE0A068B0F5C9
:100D5000803F0BD010B1B0F5A02F11D0286820F43F
:100D600080302860286820F4802002E0286840F461
:100D700080302860A06828B3FFF7CCFD80460BE0E8
:100D8000286840F480202860F0E700BFFFF7C2FD2C
:100D9000A0EB0800642870D897FAA7F0B0FA80F0AA
:100DA00040F02000400901D0286800E0686A97FA06
:100DB000A7F1B1FA81F101F01F0106FA01F1084231
:100DC000E4D01EE0FFF7A6FD804605E0FFF7A2FD98
:100DD000A0EB08006428DED897FAA7F0B0FA80F0FC
:100DE00040F02000400901D0286800E0686A97FAC6
:100DF000A7F1B1FA81F101F01F0106FA01F10842F1
:100E0000E4D12078B44F80074FF002084FF000097A
:100E10005AD568684FF0F80B10F00C0F07D06868CF
:100E2000C0F3810002281CD16868C00319D498FA65
:100E3000A8F0B0FA80F040F02000400902D0286805
:100E400001E08BE0686A98FAA8F1B1FA81F101F04B
:100E50001F0106FA01F108422BD0606901287DD1FB
:100E600027E0606988B396FAA6F0B0FA80F047F8F8
:100E70002060FFF74FFD824606E018E2FFF74AFDCB
:100E8000A0EB0A00022886D898FAA8F0B0FA80F001
:100E900040F02000400901D0286800E0686A98FA14
:100EA000A8F1B1FA81F101F01F0106FA01F108423F
:100EB000E4D028689BFAABF2A169B2FA82F220F082
:100EC000F80091400843286025E0FFE796FAA6F174
:100ED000B1FA81F147F82190FFF71CFD824605E049
:100EE000FFF718FDA0EB0A000228CCD898FAA8F06A
:100EF000B0FA80F040F02000400901D0286800E0FE
:100F0000686A98FAA8F1B1FA81F101F01F0106FAB6
:100F100001F10842E4D1207800076FD5E069C0B341
:100F200096FAA6F0B0FA80F007EB8000C0F8806473
:100F3000FFF7F0FC824605E0FFF7ECFCA0EB0A00AF
:100F40000228A0D898FAA8F1B1FA81F141F0600125
:100F50004046B6EB511F02D129680CE072E190FACD
:100F6000A0F1B1FA81F141F06001B0EB511F01D164
:100F7000296A00E0696A98FAA8F0B0FA80F000F0F7
:100F80001F0206FA02F00142D6D00120FFF7D8FB7B
:100F900034E0FFE796FAA6F1B1FA81F107EB81019F
:100FA000C1F88094FFF7B6FC824605E0FFF7B2FC7B
:100FB000A0EB0A00022898D898FAA8F1B1FA81F1BA
:100FC00041F060014046B6EB511F01D129680BE0AA
:100FD00090FAA0F1B1FA81F141F06001B0EB511F3C
:100FE00001D1296A00E0696A98FAA8F0B0FA80F0A5
:100FF00000F01F0206FA02F00142D7D12078400724
:1010000066D5E86940F08050E861E869DFF8CCB067
:1010100000F080500090DBF8001041F48071CBF8B4
:101020000010FFF777FC824606E000BFFFF772FC76
:10103000A0EB0A00642884D8DBF80000C005F5D5D1
:10104000206901280AD008B1052813D0286A20F0A9
:1010500001002862286A20F0040002E0286A40F0BB
:1010600001002862206941F2883B90B3FFF752FCEF
:1010700082460BE0286A40F004002862EEE700BFD9
:10108000FFF748FCA0EB0A01594594D898FAA8F15B
:10109000B1FA81F141F040014046B6EB511F01D158
:1010A00029680BE090FAA0F1B1FA81F141F040011A
:1010B000B0EB511F01D1296A00E0696A98FAA8F0E3
:1010C000B0FA80F000F01F0206FA02F00142D7D019
:1010D00032E005E000100240000042420070004093
:1010E000FFF718FC824605E0FFF714FCA0EB0A01AD
:1010F0005945A0D898FAA8F1B1FA81F141F0400120
:101100004046B6EB511F01D129680BE090FAA0F1DF
:10111000B1FA81F141F04001B0EB511F01D1296AD0
:1011200000E0696A98FAA8F0B0FA80F000F01F02B7
:1011300006FA02F00142D7D1E16AA1B36868C003A0
:1011400007D56868C0F38100022802D1E86AC003AD
:1011500078D44FF0806002290FD0E96A21F4803101
:10116000E96290FAA0F0B0FA80F047F82090FFF71B
:10117000D1FB80464FF0006A6CE02968C90005D5B4
:10118000E96A626B01F0F00191425BD1834690FA0B
:10119000A0F0B0FA80F047F82090FFF7BBFB824642
:1011A0004FF0006806E06AE0FFF7B4FBA0EB0A002E
:1011B00064287CD898FAA8F0B0FA80F040F02000BB
:1011C000400901D0286800E0686A98FAA8F1B1FAED
:1011D00081F101F01F0106FA01F10842E4D1E86A49
:1011E000616B20F0F0000843E862E86A216B20F4AC
:1011F00070600843E8629BFAABF0B0FA80F047F801
:101200002060FFF787FB824606E000BFFFF782FB06
:10121000A0EB0A0064284AD898FAA8F0B0FA80F047
:1012200040F02000400901D0286800E0686A98FA80
:10123000A8F1B1FA81F101F01F0106FA01F10842AB
:10124000E4D01CE099E000BFFFF764FBA0EB0800CE
:1012500064282CD89AFAAAF0B0FA80F040F0200066
:10126000400901D0286800E0686A9AFAAAF1B1FA48
:1012700081F101F01F0106FA01F10842E4D1206A70
:10128000A0B36968C1F38101022976D04FF0807163
:101290004FF0007B02280BD091FAA1F1B1FA81F155
:1012A00047F82190FFF736FB07465C466EE06AE0A0
:1012B00091FAA1F04A46B0FA80F08946BA4647F85A
:1012C0002020FFF727FB80465F4605E0FFF722FB63
:1012D000A0EB0800022856D897FAA7F0B0FA80F0E1
:1012E00040F02000400902D0286801E063E0686A0D
:1012F00097FAA7F1B1FA81F101F01F0106FA01F1A5
:101300000842E3D1606AB0F5803F09D1E86A6168BC
:101310000843E862E86AE16820F00F000843E862E9
:10132000D4E909010843696821F47411084368602D
:1013300099FAA9F0B0FA80F04AF82060FFF7EAFACB
:10134000044604E0FFF7E6FA001B02281BD897FAD0
:10135000A7F0B0FA80F040F02000400901D02868E2
:1013600000E0686A97FAA7F1B1FA81F101F01F0174
:1013700006FA01F10842E5D01DE01EE0FFF7CAFAC7
:10138000C01B022802D90320BDE8F88F94FAA4F00C
:10139000B0FA80F040F02000400901D0286800E059
:1013A000686A94FAA4F1B1FA81F101F01F0106FA1A
:1013B00001F10842E2D10020E6E70120E4E74FF026
:1013C000E0210428086903D020F004000861704778
:1013D00040F00400FAE7704710B5401EB0F1807F7E
:1013E00001D3012010BD4FF0E02460610F21601790
:1013F00000F066FB0020A06107202061002010BDE6
:1014000010B5FFF7E8FF10BD7047704730B590F892
:101410003820012A20D0012280F83820022380F8C9
:10142000393003685C6824F070045C6003685C68B1
:101430000D682C435C6003689C6824F080049C6009
:1014400003689C6849680C439C6080F8392000213F
:1014500080F83810084630BD022030BD10B50400B9
:1014600003D094F8390010B107E0012010BD00202E
:1014700084F83800204600F00DF8022084F8390086
:10148000211D206800F0FEFB012084F839000020B7
:1014900010BD000038B5054600682A4A2A49904226
:1014A0000ED1886940F4006088618869002200F4E8
:1014B0000060009002211920FFF7AAFA19203CE0F1
:1014C000224A904228D1C86940F00200C861C86928
:1014D000204C00F0020000901D4820601020606049
:1014E0000020A0608020E0604000206180006061FA
:1014F0002020A0610002E0612046FFF7CDF808B18E
:10150000FEF76CFEEC62EC61002205211D20656295
:10151000FFF77EFA1D2010E00F4A904211D1C869F2
:1015200040F00400C861C869002200F00400009087
:1015300004211E20FFF76CFA1E20BDE83840FFF79B
:101540005BBA38BD002C014000100240000400408E
:1015500030000240E40D0020000800400168CA6825
:1015600042F00102CA600068016841F001010160B7
:101570000020704770B5044690F83800012817D055
:10158000012584F83850022084F8390020688268E8
:1015900022F0770222F47F4282600868502837D018
:1015A0000DDC202859D005DC88B3102841D151E04A
:1015B000022070BD302853D040283AD13FE0602847
:1015C0002ED070280BD0B0F5805F03D0B0F5005F4F
:1015D0002FD110E02068816821F0070115E0CB6869
:1015E000D1E90121206800F0B9FB2168886840F04A
:1015F000770088601DE0CB68D1E90121206800F008
:10160000ADFB2068816841F48041816011E01EE0FB
:10161000CA684968206800F055FC5021206806E03F
:10162000CA684968206800F05EFC6021206800F00C
:101630009FFB84F83950002084F8380070BDCA68D8
:101640004968206800F03EFC40212068EFE7002157
:101650002068ECE710212068E9E720212068E6E710
:1016600030212068E3E77047704770B50446006892
:1016700001694FF00005C943890715D4C168C94302
:10168000890711D4E91E0161012020762068806954
:101690008007204602D0FFF7E7FF04E000F0ACF837
:1016A000204600F02EF9257620680169C9434907D4
:1016B00017D4C168C943490713D46FF0040101610D
:1016C000022020762068806910F4407F204602D0F6
:1016D000FFF7CAFF04E000F08FF8204600F011F990
:1016E000257620680169C943090716D4C168C94332
:1016F000090712D46FF008010161042020762068E8
:10170000C0698007204602D0FFF7AEFF04E000F07A
:1017100073F8204600F0F5F8257620680169C94382
:10172000C90617D4C168C943C90613D46FF01001A4
:101730000161082020762068C06910F4407F2046AF
:1017400002D0FFF791FF04E000F056F8204600F0C9
:10175000D8F8257620680169C943C90708D1C1684E
:10176000C943C90704D1891E0161204600F03CF934
:1017700020680169C943090609D4C168C94309063B
:1017800005D46FF0800101612046FFF73DFE20681F
:101790000169C943490609D4C168C943490605D44A
:1017A0006FF040010161204600F01FF920680169D7
:1017B000C94389060BD4C168C943890607D46FF0B1
:1017C000200101612046BDE87040FFF71EBE70BDDC
:1017D0001FB500680649884208D102200090019098
:1017E0000320039069460348FEF7B6FF1FBD0000C3
:1017F00000040040000C0140704770B5044690F8AA
:1018000038000D4601280DD0012684F838600220EA
:1018100084F8390042B1042A18D0082A2AD00C2AA8
:101820004DD139E0022070BD206800F0A9FA20688F
:10183000816941F0080181612068816921F004011A
:101840008161206881692A69114311E0206800F0F4
:10185000BFFA2068816941F4006181612068816973
:1018600021F480618161206881692A6941EA02214D
:10187000816124E0206800F0D7FA2068C16941F056
:101880000801C1612068C16921F00401C1612068BB
:10189000C1692A69114311E0206800F0F1FA20685B
:1018A000C16941F40061C1612068C16921F48061AE
:1018B000C1612068C1692A6941EA0221C16184F8D5
:1018C0003960002084F8380070BD10B5040003D0E2
:1018D00094F8390010B107E0012010BD002084F811
:1018E0003800204600F00CF8022084F83900211D51
:1018F000206800F0C7F9012084F83900002010BDED
:101900007047704770B5044690F8390016460D468A
:10191000022805D094F83900012805D10EB903B189
:1019200070BD022084F839002C482D4935B1042DB2
:1019300013D0082D34D00C2D1ED140E0226A9062C5
:10194000206A0163226831463432206AFEF7CCFEF9
:101950002068C16841F400710DE0626A9062606ABB
:101960000163226831463832606AFEF7BDFE2068A6
:10197000C16841F48061C16001222946206800F0FD
:10198000BBF918492068884203D1416C41F40041F9
:1019900041642068016841F001010160002070BDD0
:1019A000A26A9062A06A0163226831463C32A06A52
:1019B000FEF79AFE2068C16841F40061DBE7E26A45
:1019C0009062E06A0163226831464032E06AFEF7C5
:1019D0008BFE2068C16841F48051CCE70F1D0008E0
:1019E0004D1D0008002C014070477047FEE70000C5
:1019F00010B5134886B01149016047210024C0E9A1
:101A0000011440F2E731C0E903144461FFF726FDF9
:101A100000B1FEE74FF48050009069460848FFF798
:101A2000A9FD00B1FEE7049404A905480594FFF759
:101A3000EDFC002800D0FEE706B010BD002C0140F0
:101A4000300D002010B51C488EB01A4901600221EB
:101A50000024C0E901141D21C0E90314FFF7FEFCB6
:101A600000B1FEE74FF48050079007A91248FFF736
:101A700081FD00B1FEE71048FFF727FF00B1FEE748
:101A80000B940BA90C480C94FFF7C0FC00B1FEE7C7
:101A90006020CDE9000402940C22694606480494B3
:101AA000FFF7ABFE00B1FEE70348FFF791FE0EB073
:101AB00010BD0000000400406C0D0020FEE77047E0
:101AC0000907090E002806DA00F00F0000F1E020F7
:101AD00080F8141D704700F1E02080F80014704772
:101AE0007047704710B5FEF71BFFBDE81040FFF7C9
:101AF00087BC000030B593B0012528040421CDE94E
:101B000002010224CDE908400095019005954FF4AB
:101B1000E010CDE90A044FF4C0600C9040200D9015
:101B20006846FFF7E3F800B1FEE70F20CDE90E04A9
:101B300000204FF48061CDE91001129002210EA81F
:101B4000FEF798FF00B1FEE7FFF758F84FF47A71FF
:101B5000B0FBF1F0FFF740FC0420FFF730FC4FF042
:101B6000805090FAA0F00649B0FA80F041F8205079
:101B700000221146501EFEF74BFF13B030BD00008F
:101B8000000042421048016841F0010101604168D3
:101B90000E4A1140416001680D4A11400160016820
:101BA00021F480210160416821F4FE014160016857
:101BB00021F0A05101604FF47F0181600021C162DA
:101BC0000449C00308607047001002400000FFF0A5
:101BD000FFFFF6FE08ED00E02DE9F84F2048FFF783
:101BE00044FD20494FF0000ECDF800E091F800B020
:101BF00091F802A091F804901B4A704640246D466B
:101C00008DF800B08DF801A000218DF80290112709
:101C10004FF0090C00236E5C5FEA066802D522F8DB
:101C2000107001E022F810C0401C76005B1C5BB213
:101C300000B26E54082BEEDB491C49B20329E9DBE4
:101C4000641E64B2002CDBDC0021734622F81030E5
:101C5000401C491C49B200B25429F7DBBDE8F88F9B
:101C6000300D0020B00C0020080000200148FFF7D4
:101C7000FCBC00006C0D00200148FFF7F6BC000022
:101C8000A80D0020F0B50268174B184C184D194EDE
:101C90004FF08047984207D0B84205D0A04203D009
:101CA000A84201D0B04204D122F0700C4A6842EA46
:101CB0000C02984207D0B84205D0A04203D0A842F7
:101CC00001D0B04203D122F44074CA6822430260BA
:101CD0008A68C2620A688262984201D10969016316
:101CE00001214161F0BD0000002C014000040040D2
:101CF00000080040000C004010B50123046A8B402E
:101D00009C430462036A8A401343036210BD10B50A
:101D1000446A012184F83910226A824201D1217675
:101D20000EE0616A814201D1022008E0A16A81428D
:101D300001D1042003E0E16A814201D1082020762C
:101D40002046FFF7DEFD0020207610BD10B5406A6A
:101D5000012180F83910FFF786FC10BD10B58468AA
:101D600042EA032224F47F440A432243826010BDE6
:101D7000826822F070020A4342F0070181607047D6
:101D800030B5026A22F001020262026A4368846985
:101D900024F073050C682C4322F002058A682A435C
:101DA0000A4DA8420BD122F00805CA6823F44073FB
:101DB0002A434D6922F004021D438B692B43436083
:101DC000846149684163026230BD0000002C01401B
:101DD00030B5026A22F010020262026A4368846926
:101DE0000D6824F4E64444EA05248D6822F02002BC
:101DF00042EA05120B4DA8420ED1CD6822F08002B6
:101E000042EA05124D6923F4406343EA85038D6974
:101E100022F0400243EA850343608461496881639C
:101E2000026230BD002C014030B5026A22F480729B
:101E30000262036A4268C46923F4007324F07305E4
:101E40000C682C438D6843EA05230C4DA8420ED143
:101E5000CD6823F4006343EA05234D6922F4405220
:101E600042EA05128D6923F4806342EA051242605A
:101E7000C4614968C163036230BD0000002C0140A9
:101E800030B5026A22F480520262046A4268C36971
:101E90000D6823F4E64343EA05238D6824F40054D7
:101EA00044EA0534064DA84204D14D6922F480422B
:101EB00042EA85124260C36149680164046230BD30
:101EC000002C014010B5036A046A24F00104046286
:101ED000846924F0F00444EA021423F00A020A435D
:101EE0008461026210BD10B5036A23F0100303621F
:101EF0008369046A23F4704343EA023224F0A003A6
:101F000043EA01118261016210BDFEE702E008C8E8
:101F1000121F08C1002AFAD170477047002001E063
:101F200001C1121F002AFBD17047000086B0FEF7E6
:101F3000FFFCFFF7DFFD2948816941F0080181615D
:101F4000816901F008010091416941F0010141619D
:101F50004069002200F00100009007210D20FEF7EB
:101F600057FD0D20FEF748FDFFF742FDFFF76AFD24
:101F70001C481B49002401606321C0E9011440F2A0
:101F8000E731C0E90314FFF769FA00B1FEE74FF447
:101F90008050009069461348FFF7ECFA00B1FEE765
:101FA000049404A90F480594FFF730FA00B1FEE746
:101FB0000C48FFF7D3FA0B487838FFF7CFFA002226
:101FC0009821FF2000F012F8074A40F254630C21D8
:101FD00002F66450FFF796FCFEE700000010024096
:101FE00000080040A80D002008000020024B1980C6
:101FF00058809A8070470000B00C0020000000005C
:102000000000000001020304060708092C20000854
:1020100000000020080000000C1F00083420000809
:1020200008000020181200001C1F000800A24A042B
:0420300000000000AC
:04000005080001519D
:00000001FF
