:020000040800F2
:10000000C805002065010008A31E00086F1600083F
:10001000A11E000817040008812400080000000049
:100020000000000000000000000000007D1F00082C
:100030001904000800000000C51E00087F1F00080A
:100040007F0100087F0100087F0100087F01000890
:100050007F0100087F0100087F0100087F01000880
:100060007F0100087F0100087F0100087F01000870
:100070007F0100087F0100087F0100087F01000860
:100080007F0100087F0100087F0100087F01000850
:100090007F0100087F0100087F0100087F01000840
:1000A0007F010008AD2100087F0100087F010008E2
:1000B000B92100087F0100087F0100087F010008C6
:1000C0007F0100087F0100087F0100087F01000810
:1000D0007F0100087F0100087F0100087F01000800
:1000E0007F0100087F0100087F0100080000000078
:1000F0000000000000000000000000000000000000
:1001000000000000000000007F0100087F010008DF
:100110007F0100087F0100087F0100087F010008BF
:100120007F0100087F0100087F0100087F010008AF
:100130007F0100087F0100087F0100087F0100089F
:100140007F0100087F0100087F0100087F0100088F
:10015000DFF80CD000F0ECF8004800473526000826
:10016000C80500200648804706480047FEE7FEE72E
:10017000FEE7FEE7FEE7FEE7FEE7FEE7FEE7FEE757
:100180000D200008510100082DE9F05F0546002010
:1001900092469B4688460646814640241BE02846F8
:1001A00041464746224600F020F853465A46C01AB8
:1001B000914110D311461846224600F072F82D1ACC
:1001C00067EB01084F4622460120002100F069F844
:1001D00017EB00094E41201EA4F10104DFDC484664
:1001E00031462A464346BDE8F09F202A04DB203AE8
:1001F00021FA02F00021704721FA02F3D040C2F147
:1002000020029140084319467047421C10F8011B18
:100210000029FBD1801A704770B50F4D00B92868CE
:10022000002412E00A4602E09E4203D0521C1378DA
:10023000002BF9D1DAB2224305D02BB124B1002131
:1002400000F8011B04E00446401C0678002EE9D1AA
:100250002860204670BD00001400002070B50646DE
:1002600002F024F9046805460A220021304600F015
:1002700027F82C6070BD30B50B46014600202022C7
:10028000012409E021FA02F59D4205D303FA02F5A3
:10029000491B04FA02F52844151EA2F10102F1DC03
:1002A00030BD202A04DB203A00FA02F1002070471A
:1002B0009140C2F1200320FA03F3194390407047A4
:1002C0002DE9F04791460F4680460446002614F873
:1002D000015B2DB100F03EF80068405DC007F6D12B
:1002E0002B2D02D02D2D18D0641E4A4639462046AB
:1002F00000F034F827B13968A14201D1C7F8008075
:1003000071054FF002040BD54042002803DD02F0D6
:10031000CDF80460A007BDE8F08746F48066E4E706
:100320000028F8DA02F0C2F804606FF00040F2E74B
:10033000064C074D06E0E06840F0010394E8070032
:1003400098471034AC42F6D3FFF706FF883F000809
:10035000A83F000800487047843F00082DE9F05F7F
:1003600082460078002715468B460AF10104B946FB
:10037000302801D09DB113E014F8010B0127782833
:1003800003D0582801D045B10AE00DB1102D07D196
:100390000027102514F8010B02E0082500E00A25CB
:1003A0000026B0460EE005FB080005FB06F101271C
:1003B00001EB10461FFA80F8B6F5803F00D3B9462E
:1003C00014F8010B294600F018F80028EBDABBF10D
:1003D000000F05D00FB1641E00E05446CBF800407A
:1003E000B9F1000F06D002F061F802210160C81EC9
:1003F000BDE8F09F48EA0640FAE73A2800D23038D4
:1004000020F02002412A01D3A2F13700884201D313
:100410004FF0FF307047FEE77047000070B50446AC
:1004200000F0F6F80546601C02D004480078044449
:1004300000F0EEF8401BA042FAD370BD000000208F
:100440002DE9F84FDFF890A100220AF1040B1446C1
:1004500001274FF00F090BF1040E00BF0B6807FADC
:1004600004F52B40AB4274D1DFF870C14E68A6EBA7
:100470000C0866452BD00DDC032E34D005DC36B3DA
:10048000012E19D0022E2FD11BE0112E16D0122EC4
:100490002AD119E0B8F5881F19D006DCB8F5803FDD
:1004A00015D0B8F5801F1FD111E0B8F5001F0ED090
:1004B000B8F5041F18D10AE0CA6815E0CA68121D11
:1004C00012E0CA6808320FE0CA680C320CE08A6891
:1004D0002AB1012A4FF0080203D0456104E004224A
:1004E00002E0056100E00022FF2B01D8064601E092
:1004F00000F104064FEA840501D9A5F12005D6F8DC
:1005000000C009FA05F82CEA080C02FA05F54CEAD5
:10051000050CC6F800C04D68ED0057D5304DAE69EA
:1005200046F00106AE61AD6924F0030605F0010551
:1005300000952C4D06EB050CDCF80850A6074FEA99
:10054000167809FA08F6B543274EB04202D10026C4
:1005500010E03BE0254EB04201D101260AE0244ED6
:10056000B04201D1022605E0224EB04201D103265D
:1005700000E0042606FA08F62E43CCF808604D6821
:10058000DAF80060ED03554601D51E4300E09E43B6
:100590002E604D68DBF80060AD035D4601D51E435B
:1005A00000E09E432E604D68DEF80060ED02754667
:1005B00001D51E4300E09E432E604D68AD020E4DF6
:1005C0002E6801D51E4300E09E432E60641C102C53
:1005D000FFF444AFBDE8F88F0004014000001110A3
:1005E000001002400000014000080140000C0140E2
:1005F00000100140001401400C04014080680840D4
:1006000000D0012070470AB1016170470904FBE77F
:10061000014880687047000000000020024881689F
:10062000027811448160704700000020074810B52F
:10063000016841F010010160032000F095F80020EE
:1006400000F006F800F024F8002010BD0020024061
:1006500070B50D4D04464FF47A712878B1FBF0F077
:100660000A490968B1FBF0F000F0DFFC48B9102C32
:1006700007D200222146501E00F056F800206C6080
:1006800070BD012070BD0000000000200C000020A3
:100690001D4808B5816941F001018161806900F060
:1006A00001000090032000F05FF8002211466FF077
:1006B0000B0000F039F8002211466FF00A0000F03C
:1006C00033F8002211466FF0090000F02DF80022E7
:1006D0001146501F00F028F800221146101F00F0AC
:1006E00023F800221146901E00F01EF80022114649
:1006F000501E00F019F80548416821F0E06141F012
:100700008061416008BD000000100240000001400F
:1007100000F01F02012191404009800000F1E0201B
:10072000C0F8001170470000F0B40E4B1B680C4677
:10073000C3F30223C3F10705042D00D90425191DB5
:10074000072901D2002300E0DB1E012606FA05F18D
:10075000491E214099409E40761E16403143F0BC10
:1007600001F0A0BB0CED00E0064900F007020868AC
:100770004FF6FF03184040EA0220034A1043086086
:10078000704700000CED00E00000FA052DE9F0478D
:10079000DFF83C8105460E46D8F8000000F007005F
:1007A000B0420CD2D8F8001021F007013143C8F84C
:1007B0000010D8F8000000F00700B04263D128789C
:1007C000444C800705D56068A96820F0F000084314
:1007D00060602878C00745D06868012816D0216875
:1007E000022816D0890700294DDA616821F003013B
:1007F00001436160FFF70CFF6968074641F28830EA
:1008000001290FD00229814619D027E021688903E8
:10081000E9E78901E7E700BFFFF7FAFEC11B494599
:1008200001D918E081466068C0F381000128F3D146
:1008300018E000BFFFF7ECFEC11B49450BD860680C
:10084000C0F381000228F5D10CE000BFFFF7E0FE05
:10085000C11B494502D90320BDE8F087606810F04C
:100860000C0FF3D1D8F80010404601F00701B14257
:100870000BD9016821F0070131430160006800F0E5
:100880000700B04201D00120E6E72878400705D5EF
:100890006068E96820F4E060084360602878000739
:1008A00006D56068296920F4605040EAC1006060A4
:1008B00000F03CF86168084AC1F30311515CC8407C
:1008C000064908600020FFF7C3FE0020C4E70000CF
:1008D0000020024000100240182D00080C000020EB
:1008E00001480068704700000C00002004480549DA
:1008F00000684968044AC1F30221515CC84070474E
:100900000C00002000100240282D00080448054972
:1009100000684968044AC1F3C221515CC84070476D
:100920000C00002000100240282D0008F0B524A281
:1009300089B00FCA04AC84E80F0025A10FC98DE867
:100940000F002748416801F00C02042A04D0082A4D
:1009500004D0244809B0F0BD2348FBE704AAC1F342
:100960008343C903D45C28D5C16AC26A01F00F0170
:100970001DF80110D20316D5C26AC06AC2F3031271
:10098000521CA2FB0123C0F30320801CA0FB041512
:10099000154F0026A1FB070C05FB07C501FB0651FF
:1009A000FFF7F2FB03E010486043B0FBF1F09DF865
:1009B0001D10A142CED14008CCE70C486043C9E7E6
:1009C000000004050607080900000000000D0000F3
:1009D0000102030405060708090A0B0C0D0E0F108F
:1009E0000010024000127A0040787D0100093D00AD
:1009F0002DE9F84F04460078EA4DC00748D06868F2
:100A0000C0F38100012807D06868C0F38100022884
:100A100009D16868C00306D52868800338D5A06866
:100A200000286FD034E0A068B0F5803F0BD010B143
:100A3000B0F5A02F11D0286820F4803028602868F5
:100A400020F4802002E0286840F480302860A0680C
:100A500088B1FFF7DDFD064609E0286840F48020F4
:100A60002860F0E7FFF7D4FD801B642878D8286859
:100A70008003F7D50CE0FFF7CBFD064605E000BF8D
:100A8000FFF7C6FD801B6428F0D828688003F7D4E0
:100A90002078C54E80074FF001094FF000073CD584
:100AA000686810F00C0F07D06868C0F38100022856
:100AB00009D16868C00306D42868800715D5606925
:100AC00001281FD111E06069B8B1C6F80090FFF7A6
:100AD0009FFD804606E000BFFFF79AFDA0EB0800EF
:100AE0000228C3D828688007F6D52868A16920F0B5
:100AF000F80040EAC10028600FE03760FFF788FD8A
:100B0000804607E02DE100BFFFF782FDA0EB080063
:100B10000228ABD828688007F6D4207800072ED5A5
:100B2000A248E169E9B1C0F80090FFF771FD804685
:100B300006E000BFFFF76CFDA0EB0800022895D887
:100B4000686A8007F6D59A484FF4FA510068B0FBFE
:100B5000F1F0009000BF0098411E0091FAD20EE023
:100B6000B0E00760FFF754FD804605E0FFF750FD59
:100B7000A0EB0800022887D8686A8007F6D420789E
:100B8000400763D5E8694FF00008C00009D4E86960
:100B900040F08050E861E8694FF0010800F08050B3
:100BA000009084480168C90512D40168834641F465
:100BB00080710160FFF72CFD824605E0FFF728FDFC
:100BC000A0EB0A0064287DD8DBF80000C005F5D54D
:100BD000206901280AD008B1052813D0286A20F01E
:100BE00001002862286A20F0040002E0286A40F030
:100BF00001002862206941F2883B98B1FFF708FDA7
:100C000082460BE0286A40F004002862EEE700BF4D
:100C1000FFF7FEFCA0EB0A01594553D8286A80076C
:100C2000F6D50CE0FFF7F4FC824605E0FFF7F0FC98
:100C3000A0EB0A01594545D8286A8007F6D4B8F1D7
:100C4000000F03D0E86920F08050E861E06AD0B37B
:100C50006968C90307D56968C1F38101022902D116
:100C6000E96AC9037DD4022808D0E86A20F48030FC
:100C7000E862B766FFF7CCFC80463BE02868C0001E
:100C800005D5E86A616B00F0F000884269D1B7666B
:100C9000FFF7BEFC804605E0FFF7BAFCA0EB0800BA
:100CA000642874D828680001F6D4E86A616B20F0E3
:100CB000F0000843E862E86A216B20F470600843A2
:100CC000E86201E063E018E0C6F86890FFF7A0FC76
:100CD000804605E0FFF79CFCA0EB0800642856D88E
:100CE00028680001F6D508E0FFF792FCA0EB0800A9
:100CF00064284CD828680001F6D4206A90B369684B
:100D0000C1F3810102294AD00228376603D0FFF7D8
:100D10007FFC04463EE0FFF77BFC074605E000BF92
:100D2000FFF776FCC01B022831D828688001F7D471
:100D3000606AB0F5803F09D1E86A61680843E862FB
:100D4000E86AE16820F00F000843E862D4E909018D
:100D50000843696821F4741108436860C6F860901C
:100D600001E01CE019E0FFF753FC044605E000BF7A
:100D7000FFF74EFC001B022809D828688001F7D530
:100D80000BE000BFFFF744FC001B022802D9032040
:100D9000BDE8F88F28688001F4D40020F8E701202E
:100DA000F6E7000000100240000042428004424288
:100DB0000C0000200070004090F85100704770B5A2
:100DC000040005D00025A56294F8510010B104E09C
:100DD000012070BD204600F033F8022084F8510055
:100DE0002068016821F040010160D4E90101084355
:100DF000D4E903121143084361690843218B01F4CC
:100E000000710843E1690843216A0843A16A084365
:100E100021680860A069042101EA1040616A084362
:100E2000216848602168E06A08612068C16921F48E
:100E30000061C1616565012084F85100002070BD2A
:100E400010B50068144986B0884222D11348C169A0
:100E500041F40041C161C069114C00F400400490AC
:100E60004FF4A050009002200190032003906946A7
:100E70002046FFF7E5FA0021E014CDE900010291D8
:100E800069462046FFF7DCFA0648416841F0B85150
:100E9000416006B010BD0000003C00400010024060
:100EA00000100140000001402DE9F84F044690F881
:100EB00050000026994617460D4601280DD04FF0E8
:100EC000010B84F850B0FFF7A3FB804694F8510063
:100ED000B246012804D0022694E00220BDE8F88F33
:100EE000002D7BD0002F79D0032084F85100C4F866
:100EF00054A02563A786E786C4F838A0A4F83CA0D0
:100F0000A4F83EA0C4F844A0C4F840A0A068B0F57E
:100F1000004F04D12068016841F4804101602068DD
:100F20000168490603D4016841F040010160E068AE
:100F3000B0F5006F606804D030B3E08E012823D094
:100F40003EE010B1E08E01281AD135F8021B20686E
:100F500005E020688168890706D535F8021BC16065
:100F6000E08E401EE0860BE0B9F1000F34D0B9F1FD
:100F7000FF3F05D0FFF74CFBA0EB080149452BD202
:100F8000E08E0028E5D11EE0216815F8010B0873FA
:100F900006E020688168890706D515F8011B0173F2
:100FA000E08E401EE0860BE0B9F1000F14D0B9F1DD
:100FB000FF3F05D0FFF72CFBA0EB080149450BD202
:100FC000E08E0028E5D14B46012202212046CDF8D3
:100FD000008000F088FF10B1032613E011E04246C4
:100FE0004946204600F06FFF18B1012620206065B9
:100FF00008E0A06818B92068C16880680090606D3A
:1010000000B1012684F851B084F850A0304665E75D
:101010004FF0E0210428086903D020F004000861A3
:10102000704740F00400FAE7704710B5401EB0F179
:10103000807F01D3012010BD4FF0E02460610F21BB
:10104000601700F02FFF0020A06107202061002022
:1010500010BD10B5FFF7E8FF10BD7047704730B501
:1010600090F83C20012A20D0012280F83C20022365
:1010700080F83D3003685C6824F070045C600368AD
:101080005C680D682C435C6003689C6824F08004F5
:101090009C6003689C6849680C439C6080F83D2014
:1010A000002180F83C10084630BD022030BD10B54C
:1010B000040003D094F83D0010B107E0012010BDFA
:1010C000002084F83C00204600F00CF8022084F850
:1010D0003D00211D206801F075F8012084F83D00D5
:1010E000002010BD08B5154A0168154891420ED17F
:1010F000816941F4006181618069002200F400602F
:10110000009001211920FFF70FFB192010E0B1F129
:10111000804F11D1C16941F00101C161C069002254
:1011200000F00100009002211C20FFF7FDFA1C20B6
:10113000BDE80840FFF7ECBA08BD0000002C0140F4
:101140000010024070B5044690F83C00012817D00A
:10115000012584F83C50022084F83D002068826814
:1011600022F0770222F47F4282600868502837D04C
:101170000DDC202859D005DC88B3102841D151E07E
:10118000022070BD302853D040283AD13FE060287B
:101190002ED070280BD0B0F5805F03D0B0F5005F83
:1011A0002FD110E02068816821F0070115E0CB689D
:1011B000D1E90121206801F043F82168886840F0F6
:1011C000770088601DE0CB68D1E90121206801F03B
:1011D00037F82068816841F48041816011E01EE0A9
:1011E000CA684968206801F03DF85021206806E08F
:1011F000CA684968206801F046F86021206801F05B
:1012000029F884F83D50002084F83C0070BDCA687D
:101210004968206801F026F840212068EFE70021A6
:101220002068ECE710212068E9E720212068E6E744
:1012300030212068E3E7704770B504460068016913
:101240004FF00005C943890715D4C168C943890710
:1012500011D4E91E01610120207720688069800790
:10126000204602D0FFF7E7FF04E000F098F82046A0
:1012700000F096F8257720680169C943490717D41B
:10128000C168C943490713D46FF00401016102200A
:1012900020772068806910F4407F204602D0FFF755
:1012A000CAFF04E000F07BF8204600F079F82577CB
:1012B00020680169C943090716D4C168C9430907F1
:1012C00012D46FF008010161042020772068C06902
:1012D0008007204602D0FFF7AEFF04E000F05FF881
:1012E000204600F05DF8257720680169C943C906EA
:1012F00017D4C168C943C90613D46FF01001016146
:10130000082020772068C06910F4407F204602D072
:10131000FFF791FF04E000F042F8204600F040F8AB
:10132000257720680169C943C90708D1C168C94345
:10133000C90704D1891E0161204600F032F82068F7
:101340000169C943090609D4C168C943090605D41E
:101350006FF0800101612046FFF77FFE2068016980
:10136000C943490609D4C168C943490605D46FF089
:1013700040010161204600F015F820680169C94369
:1013800089060BD4C168C943890607D46FF02001D0
:1013900001612046BDE87040FFF760BE70BD704738
:1013A00070477047704770B5040004D094F8390056
:1013B000002510B106E0012070BD84F838502046A9
:1013C00000F022F8242084F839002068C16821F454
:1013D0000051C160204600F069FF2068016921F4D6
:1013E000904101612068416921F02A014161206832
:1013F000C16841F40051C160E563202084F83900E0
:1014000084F83A00002070BDF0B5DFF8D4C003685E
:1014100000243448402702210322334E334D85B047
:1014200063451CD1836943F4804383618069CDE9BE
:10143000007100F48040CDE9032069463046FEF794
:10144000FFFF8020CDE90004694630460294FEF794
:10145000F7FF686840F0E06040F0040020E0DFF84B
:1014600090C063451FD1C36943F40033C361C069B1
:10147000204E00F4003004902020CDE900010392BA
:1014800069463046FEF7DCFFCDE900746946304618
:101490000294FEF7D5FF686840F0E06040F0080075
:1014A000686005B0F0BD144DAB42FAD1C36943F496
:1014B0008023C361C069039200F480200490281542
:1014C000CDE9000169463046FEF7BAFFE814CDE9E0
:1014D0000004694630460294FEF7B2FFE1E70000DF
:1014E0000038014000100240000C014000000140A3
:1014F0000044004000140140004800402DE9F8433A
:10150000044690F83A00994616460D4620284FD1D9
:1015100095B18EB194F83800012849D0012084F8A3
:1015200038000027E763222084F83A00FFF770F8BC
:10153000A6858046E68531E00120BDE8F883E08D90
:10154000401EE085A0684346B0F5805F4FF0000282
:101550004FF020012046CDF8009004D000F05EFF4F
:1015600098B10320E9E700F059FF0028F9D120697C
:1015700000282068406803D0C1B225F8011B0DE0A7
:10158000C0F3080125F8021B08E020690028206844
:10159000406801D000F07F0005F8010BE08D0028C5
:1015A000CDD1202084F83A0084F838700020C4E7B8
:1015B0000220C2E72DE9F843044690F839001F469F
:1015C00016460D46202850D1A5B19EB194F838009A
:1015D00001284AD0012084F838004FF00008C4F8F0
:1015E0003C80212084F83900FFF712F8A684814658
:1015F000E68426E00120BDE8F883E08C401EE0840C
:10160000A0684B46B0F5805F4FF000024FF08001BC
:101610002046009703D000F001FFE8B90DE000F08C
:10162000FDFEC8B928882168C0F308004860206919
:1016300008B16D1C05E0AD1C03E0216815F8010B35
:101640004860E08C0028D8D14B460022402120463B
:10165000009700F0E3FE08B10320CCE7202084F8D7
:10166000390084F838800020C5E70220C3E7FEE790
:1016700001B500224FF480710748FEF7C4FFC8236C
:10168000012269460548FFF70FFC0448FFF794FB69
:101690000328FAD008BD0000001001401C00002003
:1016A00070B50646002440F23F11204600F080F954
:1016B00000F0C4FA4FF49635304600F093FA641CFB
:1016C000AC42F9D3BDE87040012211020148FEF797
:1016D0009ABF000000100140203AD2B2034B02EB47
:1016E000420203EB021200F01BB80000302D00088C
:1016F0002DE9F0410E460746002540F23F1407E071
:1017000021463846FFF7E8FF103C6D1CA4B2761C5A
:101710003278002A01D0142DF2D3BDE8F081000008
:101720002DE9F74F914604460026019900F040F953
:10173000DFF85480DFF854B001274FF4807A00BFFF
:1017400000F07CFA5FF0000539F8160007FA05F1A1
:101750000842404601D1408800E0008800F042FA8B
:101760006D1C102DF0D3012251465846FEF74BFF59
:10177000641CE4B22046019900F01AF9761C182E78
:10178000DED3BDE8FE8F00001000002000100140F5
:101790002DE9F84F814603208846A0EB420700253B
:1017A000144664E008EB040081B209EB050B0090DD
:1017B0000BF0FF0000F0FCF82F4E308800F02EFAFE
:1017C000A8EB040A1FFA8AF10BF0FF0000F0F0F812
:1017D000308800F023FA0098A9EB050B81B20BF0DA
:1017E000FF0000F0E5F8308800F018FA1FFA8AF1DF
:1017F0000BF0FF0000F0DCF8308800F00FFA08EB87
:10180000050B09EB040A1FFA8BF10AF0FF0000F048
:10181000CFF8308800F002FAA8EB050081B2009002
:101820000AF0FF0000F0C4F8308800F0F7F9A9EBE7
:10183000040A1FFA8BF10AF0FF0000F0B9F83088B3
:1018400000F0ECF9009881B20AF0FF0000F0B0F867
:10185000308800F0E3F9002F03DA07EB8507BF1D9E
:1018600004E0281B07EB8007641E0A376D1CA542A5
:1018700098D9BDE8F88F0000100000202DE9F74F3F
:10188000DFF8B89090460321A1EB4806B9F80210A2
:1018900082B0074600241546ADF80010BDF80010D0
:1018A000A9F800104FF6FF7A35E09DB103980AEAD7
:1018B0004502284481B20090381B9346C0B20023F1
:1018C00000F03EF800985A4681B23819C0B20023A1
:1018D00000F036F89CB103980AEA4402204481B231
:1018E0000090781B9346C0B2002300F029F80098BE
:1018F0005A4681B27819C0B2002300F021F8002EB8
:1019000003DA06EB8406B61D04E0601B06EB8006D6
:101910006D1E0A36641CAC42C7D9B9F80010ADF888
:101920000010BDF80010A9F80010039905B0F8B236
:101930004246BDE8F04FFFF72BBF0000100000202B
:101940002DE9F0479846174689460546002400F0E1
:101950002FF8114EB8F1000F19D100F06FF903E024
:10196000308800F03FF9641CBC42F9D3BDE8F04771
:10197000012211020948FEF746BE308800F04EF9F8
:101980006D1CEDB24946284600F012F8641CBC42BA
:10199000F3D3BDE8F08700001000002000100140E4
:1019A00001B5BDF800000149488008BD10000020C5
:1019B00010B50C460146202000F04AF92146BDE84A
:1019C0001040212000F044B901B5BDF800000149E4
:1019D000088008BD1000002010B501228021804839
:1019E000FEF711FE3220FEF719FD4FF40041E5200D
:1019F00000F02EF90121002000F02AF94FF4807147
:101A0000012000F025F94FF4E061022000F020F9F8
:101A100041F23001032000F01BF90021042000F006
:101A200017F940F20221082000F012F900210920E4
:101A300000F00EF900210A2000F00AF900210C2024
:101A400000F006F900210D2000F002F900210F201E
:101A500000F0FEF80021102000F0FAF8002111201B
:101A600000F0F6F80021122000F0F2F80021132017
:101A700000F0EEF8C820FEF7D1FC41F2B071102062
:101A800000F0E6F840F23711112000F0E1F83220C2
:101A9000FEF7C4FC40F23911122000F0D9F83220D0
:101AA000FEF7BCFC4FF4E851132000F0D1F81321ED
:101AB000292000F0CDF83220FEF7B0FC00212020D4
:101AC00000F0C6F80021212000F0C2F806213020E5
:101AD00000F0BEF840F20111312000F0B9F8032106
:101AE000322000F0B5F84FF48371352000F0B0F8E3
:101AF00040F60231362000F0ABF840F202313720D8
:101B000000F0A6F840F20771382000F0A1F8072194
:101B1000392000F09DF84FF4C0613C2000F098F8A7
:101B200040F20B213D2000F093F80021502000F0FE
:101B30008FF8EF21512000F08BF80021522000F0A7
:101B400087F840F23F11532000F082F84FF427410C
:101B5000602000F07DF80121612000F079F800217B
:101B60006A2000F075F80021802000F071F8002153
:101B7000812000F06DF80021822000F069F800213A
:101B8000832000F065F80021842000F061F8002136
:101B9000852000F05DF81021902000F059F8002118
:101BA000922000F055F80321932000F051F84FF4F3
:101BB0008871952000F04CF80021972000F048F83B
:101BC0000021982000F044F841F21801032000F0B1
:101BD0003FF8BDE8104040F27311072000F038B81C
:101BE0000014014001B5C82301220B480DF1010189
:101BF000FFF75AF90848FFF7DFF80328FAD0C8239F
:101C0000012269460448FFF74FF90348FFF7D4F86B
:101C10000328FAD008BD00001C00002010B50446BF
:101C200000F00CF82046FFF7DDFF0122BDE8104070
:101C300011020148FEF7E7BC0010014010B5222058
:101C400000F02EF8BDE810407220FFF711BD000033
:101C500013B500F025F87220FFF70AFDC823012212
:101C60000DF105010C48FFF71FF90B48FFF7A4F829
:101C70000328FAD0C823012201A90748FFF714F965
:101C80000548FFF799F80328FAD00122110203480A
:101C9000FEF7B9FC1CBD00001C0000200010014034
:101CA00001B57020FFF7E4FC0C49002008600C48E7
:101CB000FFF782F80328FAD0C823012269460848B2
:101CC000FFF7F2F80648FFF777F80328FAD0012269
:101CD00011020448FEF797FC08BD00000C3C0040D0
:101CE0001C000020001001402DE9F0432D4885B074
:101CF000816941F040018161816901F040010491F5
:101D0000816941F008018161816901F00801049154
:101D1000816941F010018161816901F01001049134
:101D2000816941F02001816180691F4F00F020002E
:101D300004900022E0213846FEF765FCDFF86C8055
:101D4000BE15002231464046FEF75DFCDFF860908C
:101D5000002280214846FEF756FC18200090002003
:101D60000190029069463846FEF76AFBE0200124A4
:101D7000CDE900040325694603953846FEF760FB6C
:101D8000CDE90064694640460395FEF759FB802083
:101D9000CDE90004694603954846FEF751FB05B0BE
:101DA000BDE8F0830010024000180140001001401F
:101DB000001401400E4810B50C4901604FF48271C7
:101DC0004160002102228160C0E9031201224261C8
:101DD0005202C0E906210162416281620A21C162A8
:101DE000FEF7EDFF002800D0FEE710BD003C0040EC
:101DF0001C00002010B5144886B01249016047212C
:101E00000024C0E9011440F2E731C0E90314446141
:101E10008461FFF74CF900B1FEE74FF48050009069
:101E200069460948FFF78EF900B1FEE7049404A95A
:101E300005480594FFF713F9002800D0FEE706B027
:101E400010BD0000002C01407400002010B51348A4
:101E500086B04FF08041016047210024C0E90114A1
:101E600040F2E731C0E903148461FFF720F900B1C3
:101E7000FEE74FF48050009069460848FFF762F98A
:101E800000B1FEE7049404A904480594FFF7E7F8BD
:101E9000002800D0FEE706B010BD0000B40000200E
:101EA000FEE770470907090E002806DA00F00F0068
:101EB00000F1E02080F8141D704700F1E02080F868
:101EC00000147047704738B50B4600920446002254
:101ED000802100F008F8002804D0606D40F0200058
:101EE0006065032038BD2DE9F0411D4617460E46BA
:101EF0000446DDF8188035E0681C33D02DB1FEF7BC
:101F000087FBA0EB0800A8422CD32068416821F091
:101F1000E00141606068B0F5827F0BD1A068B0F548
:101F2000004F02D0B0F5806F04D12068016821F025
:101F300040010160A06AB0F5005F0AD12068016825
:101F40004DF6FF72114001602068016841F40051B4
:101F50000160012084F85100002084F85000032023
:101F6000BDE8F0812068806836EA000004D00020D7
:101F7000B842C1D10020F3E70120F9E7704710B55E
:101F8000FEF74CFBBDE81040FFF763B830B593B0E7
:101F9000012528040421CDE902010224CDE90840ED
:101FA0000095019005954FF4E010CDE90A044FF437
:101FB000C0600C9040200D906846FEF719FD00B1FE
:101FC000FEE70F20CDE90E0400204FF48061CDE93B
:101FD0001001129002210EA8FEF7D8FB00B1FEE717
:101FE000FEF77EFC4FF47A71B0FBF1F0FFF71DF8BD
:101FF0000420FFF70DF80448056700221146501E23
:10200000FEF792FB13B030BD000042421048016859
:1020100041F00101016041680E4A114041600168D0
:102020000D4A11400160016821F48021016041687E
:1020300021F4FE014160016821F0A05101604FF4DC
:102040007F0181600021C1620449C00308607047BC
:10205000001002400000FFF0FFFFF6FE08ED00E078
:1020600070B51C4D08212846FEF7C8FA70B1002053
:1020700000EB800040F3931040011D2190FBF1F034
:102080001138002800DC002080B270BD0022402101
:102090002846FEF7B8FAD02000F05AF8002000F0E9
:1020A00057F8902000F054F8002000F051F8044652
:1020B000002000F04DF80146600140EAD100C0F375
:1020C0000B04012240212846FEF79DFAA4F6FF7476
:1020D0006042CDE70018014070B51C4D082128462C
:1020E000FEF78CFA80B10024C4EB041040F31320F7
:1020F000C0EB00100001D92190FBF1F00C38002852
:1021000000DC002080B270BD002240212846FEF78E
:102110007AFAD02000F01CF8002000F019F80446EC
:10212000902000F015F80646002000F011F800207D
:1021300000F00EF8610141EAD600C0F30B04012261
:1021400040212846FEF75FFACEE700000018014064
:102150002DE9F0410024144F064625460122802136
:102160003846FEF750FA300601D5012200E0002281
:1021700020213846FEF747FA002280213846FEF734
:1021800042FA7006060E6006040E10213846FEF76D
:1021900035FA012801D144F001046D1CEDB2082D7F
:1021A000DCD32046BDE8F081001801400148FFF76C
:1021B00043B80000740000200148FFF73DB800005C
:1021C000B4000020F0B50268194B1A4C1A4D1B4E92
:1021D0004FF08047984207D0B84205D0A04203D0C4
:1021E000A84201D0B04204D122F0700C4A6842EA01
:1021F0000C02984207D0B84205D0A04203D0A842B2
:1022000001D0B04203D122F44074CA68224322F0C4
:1022100080044A69224302608A68C2620A68826254
:10222000984201D10969016301214161F0BD0000BB
:10223000002C01400004004000080040000C004059
:1022400010B5846842EA032224F47F440A432243FF
:10225000826010BD826822F070020A4342F00701DA
:102260008160704710B5036A046A24F001040462B7
:10227000846924F0F00444EA021423F00A020A43B9
:102280008461026210BD10B5036A23F0100303627B
:102290008369046A23F4704343EA023224F0A00302
:1022A00043EA01118261016210BD00002DE9F04195
:1022B000044600680169E26821F44051114301615C
:1022C0002169A0680843616908432168CA6841F22E
:1022D0000C639A430243CA6020684169A26921F4F1
:1022E0004071114341614C4920686425322688427F
:1022F0003CD1FEF70BFB00EBC00101EB0010616865
:102300008900B0FBF1F7FEF701FB00EBC00101EB28
:1023100000106168B0468900B0FBF1F0B0FBF5F049
:102320006FF01801484307EB800106EB0110B0FB8A
:10233000F5F000F0F006FEF7E9FA00EBC00101EB62
:10234000001061688900B0FBF1F0B0FBF5F006EB1E
:102350000016FEF7DBFA00EBC00101EB001061682C
:102360008900B0FBF1F7FEF7D1FA3BE0FEF7BEFAC9
:1023700000EBC00101EB001061688900B0FBF1F7D0
:10238000FEF7B4FA00EBC00101EB00106168B04643
:102390008900B0FBF1F0B0FBF5F06FF01801484395
:1023A00007EB800106EB0110B0FBF5F000F0F00642
:1023B000FEF79CFA00EBC00101EB00106168890098
:1023C000B0FBF1F0B0FBF5F006EB0016FEF78EFA6D
:1023D00000EBC00101EB001061688900B0FBF1F770
:1023E000FEF784FA00EBC00101EB00106168890080
:1023F000B0FBF1F0B0FBF5F06FF01801484307EBCC
:10240000800108EB0110B0FBF5F0216800F00F002F
:1024100030448860BDE8F081003801402DE9F0418A
:10242000984617460E460446069D1DE0681C1BD0C4
:102430002DB1FEF7EDF8A0EB0800A84214D92068F2
:10244000C16821F4D071C1602068416921F00101A7
:102450004161202084F8390084F83A00002084F893
:1024600038000320BDE8F0812068006836EA0000EB
:1024700004D00020B842D9D00020F3E70120F9E7CA
:10248000FEE700000FB4084B10B504A902AA039898
:1024900000F020F8044602A9002000F0C5F820460C
:1024A00010BC5DF814FB00002926000800487047A6
:1024B0001800002002E008C8121F08C1002AFAD143
:1024C00070477047002001E001C1121F002AFBD1B4
:1024D000704700002DE9FF4F89B09B460446002558
:1024E00006E025280BD05A460B999047641C6D1CBA
:1024F00020780028F5D10DB02846BDE8F08F0027E0
:10250000B8460122474900E0074314F8013F203B49
:1025100002FA03F00842F7D120782E2819D114F8D6
:10252000010F47F004072A280ED06FF02F02207801
:10253000A0F1300109290CD808EB880102EB410118
:1025400000EB0108641CF2E70A98641C50F8048B45
:102550000A9020780028CED0642808D0692806D0B8
:1025600075281ED05A460B9990476D1C58E00A9961
:102570004FF00A0901C90A91002802DA40422D21D0
:1025800002E0390504D52B218DF82010012103E04C
:10259000F90704D02021F7E78A4608AE0DE00021B4
:1025A000FAE70A994FF00A0901C90A91F7E7494683
:1025B000FDF761FE303106F8011D0028F7D1ADEBC3
:1025C000060000F12009780701D44FF00108C84542
:1025D00002DDA8EB090000E000208046002706E0AD
:1025E00008A85A46C05D0B9990476D1C7F1C574543
:1025F000F6DB04E030205A460B9990476D1CB8F189
:102600000001A8F10108F5DC05E016F8010B5A46B7
:102610000B9990476D1CB9F10001A9F10109F4DC97
:10262000641C65E7092801000A68531C0B601070E0
:1026300070470000AEB0FDF7F9FFFFF7A7FCFFF70A
:1026400053FBFFF7B7FBFF48FD494FF4E137002488
:102650000160C0E901740C26C460C0E904468461CD
:10266000C461FEF7A0FE00B1FEE7F648F649403827
:102670000160C0E90174C460C0E904468461C461BA
:10268000FEF791FE00B1FEE7FFF7B4FBFFF7DEFBBC
:10269000EC4DEE4840352860C5E90174EC60C5E9B1
:1026A0000446AC612846EC61FEF77DFE00B1FEE712
:1026B000FFF792F90020FEF7F3FF4FF2062A50468B
:1026C000FFF76EF94FF49279182249461C20FFF764
:1026D000D5F84EF6EC0B5846FFF762F91822F021B8
:1026E0001C20FFF7CBF849F63610FFF759F91822EE
:1026F000BC211C20FFF7C2F846F2D610FFF750F9B4
:10270000182288211C20FFF7B9F843F69620FFF71E
:1027100047F9182254211C20FFF7B0F842F2BE40BE
:10272000FFF73EF9182220211C20FFF7A7F840F2FE
:102730005E50FFF735F9182249465020FFF79EF802
:1027400040F2FA50FFF72CF91822F0215020FFF741
:1027500095F840F2B140FFF723F91822BC21502030
:10276000FFF78CF844F66A50FFF71AF9182288210F
:102770005020FFF783F848F60960FFF711F9182297
:1027800054215020FFF77AF84CF6E760FFF708F97C
:10279000182220215020FFF771F84FF64770FFF7FD
:1027A000FFF8182249468420FFF768F84FF47E406E
:1027B000FFF7F6F81822F0218420FFF75FF84FF6B4
:1027C000C040FFF7EDF81822BC218420FFF756F82F
:1027D0004FF6A420FFF7E4F8182288218420FFF7A1
:1027E0004DF847F6A920FFF7DBF818225421842082
:1027F000FFF744F846F2F130FFF7D2F81822202113
:102800008420FFF73BF8A8460DF10C06FFF728FCE3
:102810000546FFF761FCA5F58571302912D804281B
:1028200010D330280ED80020FFF7BAF818224D46F2
:1028300049461C20FFF722F85046FFF7B1F818224E
:1028400029466FE0A5F1D601302911D804280FD30D
:1028500030280DD80020FFF7A3F81822F0211C2003
:10286000FFF70CF85846FFF79BF81822F02159E0C3
:10287000A5F1A201302912D8042810D330280ED88F
:102880000020FFF78DF81822BC211C20FEF7F6FF70
:1028900049F63610FFF784F81822BC2142E0A5F172
:1028A0006E01302912D8042810D330280ED8002009
:1028B000FFF776F8182288211C20FEF7DFFF46F28A
:1028C000D610FFF76DF8182288212BE0A5F13A0108
:1028D000302912D8042810D330280ED80020FFF752
:1028E0005FF8182254211C20FEF7C8FF43F69620FB
:1028F000FFF756F81822542114E02D1F302D14D85C
:10290000042812D3302810D80020FFF749F81822E5
:1029100020211C20FEF7B2FF42F2BE40FFF740F834
:10292000182220211C20FEF7A9FFFFF799FB05467E
:10293000FFF7D2FBA5F58571302913D8382811D3BC
:1029400068280FD80020FFF72BF818224D4649467B
:102950005020FEF793FF40F25E50FFF721F8182257
:10296000294679E0A5F1D601302912D8382810D3AC
:1029700068280ED80020FFF713F81822F021502005
:10298000FEF77CFF40F2FA50FFF70AF81822F02118
:1029900062E0A5F1A201302912D8382810D36828A6
:1029A0000ED80020FEF7FCFF1822BC215020FEF7B5
:1029B00065FF40F2B140FEF7F3FF1822BC214BE067
:1029C000A5F16E01302912D8382810D368280ED806
:1029D0000020FEF7E5FF182288215020FEF74EFF69
:1029E00044F66A50FEF7DCFF1822882134E0A5F196
:1029F0003A01302912D8382810D368280ED8002080
:102A0000FEF7CEFF182254215020FEF737FF48F67C
:102A10000960FEF7C5FF182254211DE02D1F302D3F
:102A20001DD838281BD3682819D80020FEF7B8FF16
:102A3000182220215020FEF721FF4CF6E76007E026
:102A400000440040340100200038014000480040AC
:102A5000FEF7A6FF182220215020FEF70FFFFFF7F8
:102A6000FFFA0546FFF738FBA5F58571302918D820
:102A70006C2816D39C2814D80020FEF791FF18224A
:102A80004D4649468420FEF7F9FE4FF64770FEF7A3
:102A900087FF182229468420FEF7F0FE3B22EB2117
:102AA0001AE0A5F1D601302918D86C2816D39C2835
:102AB00014D80020FEF774FF1822F0218420FEF7BE
:102AC000DDFE4FF47E40FEF76BFF1822F0218420DC
:102AD000FEF7D4FE0722C121FF206FE0A5F1A2017D
:102AE000302917D86C2815D39C2813D80020FEF75E
:102AF00057FF1822BC218420FEF7C0FE4FF6C040CD
:102B0000FEF74EFF1822BC218420FEF7B7FE0022FC
:102B10009821E1E7A5F16E01302917D86C2815D36B
:102B20009C2813D80020FEF73BFF18228821842020
:102B3000FEF7A4FE4FF6A420FEF732FF18228821EC
:102B40008420FEF79BFE22225721C5E7A5F13A011A
:102B5000302918D86C2816D39C2814D80020FEF7EA
:102B60001FFF182254218420FEF788FE47F6A92073
:102B7000FEF716FF182254218420FEF77FFE48221C
:102B8000552179201AE02D1F302D19D86C2817D324
:102B90009C2815D80020FEF703FF1822202184204E
:102BA000FEF76CFE46F2F130FEF7FAFE1822202105
:102BB0008420FEF763FE8B227D21602000F086F8E2
:102BC0004FF4FC60FEF700FF2AA1A820FEF790FD5D
:102BD0004FF6E070FEF7F8FE2CA1C020FEF788FD4E
:102BE000D8F800000168C9438906FBD40A231322E0
:102BF00026A92C48FEF782FC26A8FDF706FB26AA8C
:102C0000104429A100F8014C501CFDF705FB03906E
:102C100070B1012506E024A10020FDF7FDFA46F879
:102C200025006D1C06EB850050F8040C0028F2D13D
:102C3000002508AF56F82500FDF710FB47F82500E2
:102C40006D1C052DF6DB0AAB93E807008DE8070045
:102C5000DDE9082315A10DA8FFF714FC0DA8FDF769
:102C6000D4FA82B20F4864230DA94038FEF7A2FCC3
:102C7000CCE5000078787878785475726E4F4E2FD6
:102C80004F46467878787878000000007878787831
:102C90007878785241494E424F57787878787878EA
:102CA00000000000740100202C000000523A25644E
:102CB00020473A256420423A25642053743A25641B
:102CC0002052623A25640A0D0000000010B50C4B3A
:102CD00088B01C69DB688DE81C000B46024609A120
:102CE00003A8FFF7CFFB03A8FDF78FFA82B20448D1
:102CF000642303A94038FEF75DFC08B010BD000056
:102D0000B40100205B25642C25642C25642C2564EB
:102D10002C25645D0A000000000000000000000097
:102D20000102030406070809000000000102030471
:102D30000000000000000000000000000000000093
:102D40000000000000000000000000000000000083
:102D50000000000000000000000000000000000073
:102D600000008001800180018001800180018001DC
:102D7000800180018001800180018001000000004D
:102D80008001800100000000000000000000000041
:102D900000000000CC00CC00CC00CC00CC00CC006B
:102DA0000000000000000000000000000000000023
:102DB0000000000000000000000000000000000013
:102DC000000000000000000000000000600C600C2B
:102DD000600C30063006FE1FFE1F30063807180351
:102DE000FE1FFE1F180318038C018C018C010000CC
:102DF00000008000E003F80F9C0E8C1C8C188C00E7
:102E00009800F801E007800E801C8C188C189C1824
:102E1000B80CF00FE003800080000000000000000C
:102E20000000000000000E181B0C110C110611060A
:102E3000110311039B018E01C038C06C60446044D3
:102E4000304430441844186C0C3800000000000076
:102E50000000E001F0033807180618063003F001FF
:102E6000F000F8009C310E33061E061C061C063FBF
:102E7000FC73F021000000000000000000000000D2
:102E8000000000000C000C000C000C000C000C00FA
:102E90000000000000000000000000000000000032
:102EA0000000000000000000000000000000000022
:102EB0000000000200038001C000C000600060004C
:102EC0003000300030003000300030003000300082
:102ED00060006000C000C00080010003000200002C
:102EE000000020006000C00080018001000300039A
:102EF00000060006000600060006000600060006A2
:102F00000003000380018001C00060002000000079
:102F1000000000000000000000000000C000C00031
:102F2000D806F807E0013003380700000000000071
:102F30000000000000000000000000000000000091
:102F4000000000000000000000000000800180017F
:102F5000800180018001FC3FFC3F800180018001F5
:102F6000800180010000000000000000000000005F
:102F70000000000000000000000000000000000051
:102F80000000000000000000000000000000000041
:102F900000008001800100010001800000000000AD
:102FA0000000000000000000000000000000000021
:102FB0000000000000000000E007E0070000000043
:102FC0000000000000000000000000000000000001
:102FD00000000000000000000000000000000000F1
:102FE00000000000000000000000000000000000E1
:102FF0000000C000C0000000000000000000000051
:103000000000000C000C0006000600060003000390
:1030100000038003800180018001C000C000C00067
:1030200060006000000000000000000000000000E0
:103030000000E003F007380E180C0C180C180C18E0
:103040000C180C180C180C180C180C18180C380E3E
:10305000F007E00300000000000000000000000096
:10306000000000018001C001F00198018801800189
:103070008001800180018001800180018001800148
:10308000800180010000000000000000000000003E
:103090000000E003F80F180C0C180C1800180018AA
:1030A000000C000600038001C00060003000180022
:1030B000FC1FFC1F000000000000000000000000DA
:1030C0000000E001F807180E0C0C0C0C000C0006B8
:1030D000C003C007000C001800180C180C18180CBE
:1030E000F807E003000000000000000000000000FE
:1030F0000000000C000E000F000F800DC00C600CD3
:10310000600C300C180C0C0CFC3FFC3F000C000C4D
:10311000000C000C00000000000000000000000097
:103120000000F80FF80F180018000C00EC03FC0763
:103130001C0E001C0018001800180C181C0C180E8F
:10314000F807E0030000000000000000000000009D
:103150000000C007F00F381C181818000C00CC0332
:10316000EC0F3C0E1C1C0C180C180C18181C380EFC
:10317000F007E00300000000000000000000000075
:103180000000FC1FFC1F000C00060006000380036B
:103190008001C001C000E0006000600070003000ED
:1031A00030003000000000000000000000000000BF
:1031B0000000E003F007380E180C180C180C380645
:1031C000F007F007180C0C180C180C180C18380C19
:1031D000F80FE00300000000000000000000000005
:1031E0000000E003F007380E1C0C0C180C180C182B
:1031F0001C1C381EF81BE0190018000C000C1C0EDB
:10320000F807F001000000000000000000000000CE
:1032100000000000000000000000000080018001AC
:10322000000000000000000000000000000000009E
:10323000800180010000000000000000000000008C
:10324000000000000000000000000000800180017C
:10325000000000000000000000000000000000006E
:1032600080018001000100018000000000000000DA
:10327000000000000000000000000000000000004E
:103280000010001C800FE003F8001800F800E003B5
:10329000800F001C00100000000000000000000073
:1032A000000000000000000000000000000000001E
:1032B000F81F000000000000F81F000000000000E0
:1032C00000000000000000000000000000000000FE
:1032D00000000000000000000000000000000000EE
:1032E00008003800F001C007001F0018001FC007C9
:1032F000F00138000800000000000000000000009D
:103300000000E003F80F180C0C180C180018000C43
:10331000000600038001C000C000C00000000000E3
:10332000C000C0000000000000000000000000001D
:1033300000000000E00718180420C229224A1144A6
:1033400009440944094409221113E20C02400420F3
:103350001818E00700000000000000000000000056
:10336000000080038003C006C006C006600C600C2D
:10337000301830183018F83FF83F1C700C600C60A3
:1033800006C006C0000000000000000000000000B1
:103390000000FC03FC0F0C0C0C180C180C180C0C87
:1033A000FC07FC0F0C180C300C300C300C300C18D7
:1033B000FC1FFC07000000000000000000000000EF
:1033C0000000C007F01F38381C300C700660060083
:1033D0000600060006000600060006600C701C30A1
:1033E000F01FE007000000000000000000000000E7
:1033F0000000FE03FE0F060E061806180630063003
:103400000630063006300630063006180618060E5E
:10341000FE0FFE030000000000000000000000009E
:103420000000FC3FFC3F0C000C000C000C000C00EA
:10343000FC1FFC1F0C000C000C000C000C000C000E
:10344000FC3FFC3F00000000000000000000000006
:103450000000F83FF83F1800180018001800180086
:10346000F81FF81F1800180018001800180018009E
:10347000180018000000000000000000000000001C
:103480000000E00FF83F3C780E6006E007C0030044
:10349000030003FE03FE03C007C006C00EC03CF0DD
:1034A000F83FE00F000000000000000000000000F6
:1034B00000000C300C300C300C300C300C300C3068
:1034C000FC3FFC3F0C300C300C300C300C300C301E
:1034D0000C300C3000000000000000000000000074
:1034E0000000800180018001800180018001800155
:1034F00080018001800180018001800180018001C4
:1035000080018001000000000000000000000000B9
:103510000000000600060006000600060006000681
:103520000006000600060006000618061806380702
:10353000F003E001000000000000000000000000B7
:10354000000006300618060C060606038601C600B3
:1035500066007600DE008E0106030606060C0618DD
:1035600006300660000000000000000000000000BF
:1035700000001800180018001800180018001800A3
:10358000180018001800180018001800180018007B
:10359000F81FF81F000000000000000000000000FD
:1035A00000000EE01EF01EF01EF036D836D836D8D9
:1035B00036D866CC66CC66CCC6C6C6C6C6C6C6C637
:1035C00086C386C300000000000000000000000069
:1035D00000000C301C303C303C306C306C30CC3057
:1035E000CC308C310C330C330C360C360C3C0C3C90
:1035F0000C380C300000000000000000000000004B
:103600000000E007F81F1C380E70066003C003C0FE
:1036100003C003C003C003C003C006600E701C38A3
:10362000F81FE0070000000000000000000000009C
:103630000000FC0FFC1F0C380C300C300C300C3030
:103640000C18FC1FFC070C000C000C000C000C00FC
:103650000C000C0000000000000000000000000052
:103660000000E007F81F1C380E70066003E003C07E
:1036700003C003C003C003C007E006630E3F1C3C49
:10368000F83FE0F700C0000000000000000000006C
:103690000000FE0FFE1F06380630063006300638E2
:1036A000FE1FFE0706030606060C0618061806305F
:1036B000063006600000000000000000000000006E
:1036C0000000E003F80F1C0C0C180C180C001C0078
:1036D000F803E00F001E0038063006300E301C1CC8
:1036E000F80FE007000000000000000000000000EC
:1036F0000000FE7FFE7F800180018001800180014B
:1037000080018001800180018001800180018001B1
:1037100080018001000000000000000000000000A7
:1037200000000C300C300C300C300C300C300C30F5
:103730000C300C300C300C300C300C300C301818B5
:10374000F81FE0070000000000000000000000007B
:10375000000003600630063006300C180C180C18F8
:10376000180C180C380E3006300670076003600322
:10377000C001C001000000000000000000000000C7
:1037800000000360C361C361C3616633663366339F
:103790006633663366336C1B6C1B6C1B2C1A3C1E29
:1037A000380E380E0000000000000000000000008D
:1037B00000000FE00C7018303018700C600EC0075D
:1037C00080038003C003E006700C301C18180C3016
:1037D0000E6007E000000000000000000000000094
:1037E000000003C006600C301C383818300C60062E
:1037F000E007C00380018001800180018001800119
:1038000080018001000000000000000000000000B6
:103810000000FC7FFC7F006000300018000C0006F8
:1038200000038001C0006000300018000C0006009A
:10383000FE7FFE7F0000000000000000000000008E
:103840000000E003E00360006000600060006000D2
:103850006000600060006000600060006000600068
:1038600060006000600060006000E003E0030000B2
:10387000000030003000600060006000C000C00048
:10388000C000C0018001800180010003000300032B
:10389000000600060000000000000000000000001C
:1038A0000000E003E0030003000300030003000343
:1038B00000030003000300030003000300030003F0
:1038C00000030003000300030003E003E003000023
:1038D00000000000C001C001600360036003300607
:1038E0003006180C180C000000000000000000005A
:1038F00000000000000000000000000000000000C8
:1039000000000000000000000000000000000000B7
:1039100000000000000000000000000000000000A7
:103920000000FFFFFFFF000000000000000000009B
:1039300000000C000C000C000C000C000C0000003F
:103940000000000000000000000000000000000077
:103950000000000000000000000000000000000067
:10396000000000000000000000000000F003F80765
:103970001C0C0C0C000FF00FF80C0C0C0C0C1C0F9A
:10398000F80FF01800000000000000000000000028
:10399000000018001800180018001800D803F80FCD
:1039A000380C181818181818181818181818380C6F
:1039B000F80FD80300000000000000000000000025
:1039C000000000000000000000000000C003F0073D
:1039D000300E180C1800180018001800180C300EC3
:1039E000F007C0030000000000000000000000001D
:1039F000000000180018001800180018C01BF01F65
:103A0000301C181818181818181818181818301CFE
:103A1000F01FC01B000000000000000000000000BC
:103A2000000000000000000000000000C003F00FD4
:103A3000300C1818F81FF81F180018003818301C20
:103A4000F00FC007000000000000000000000000B0
:103A50000000800FC00FC000C000C000F007F007DA
:103A6000C000C000C000C000C000C000C000C00056
:103A7000C000C000000000000000000000000000C6
:103A8000000000000000000000000000E00DF80F42
:103A9000180E0C0C0C0C0C0C0C0C0C0C0C0C180E4A
:103AA000F80FE00D000C0C0C1C06F807F0010000EC
:103AB000000018001800180018001800D807F80FA8
:103AC000381C181818181818181818181818181852
:103AD0001818181800000000000000000000000086
:103AE0000000C000C000000000000000C000C000D6
:103AF000C000C000C000C000C000C000C000C000C6
:103B0000C000C00000000000000000000000000035
:103B10000000C000C000000000000000C000C000A5
:103B2000C000C000C000C000C000C000C000C00095
:103B3000C000C000C000C000C000F8007800000055
:103B400000000C000C000C000C000C000C0C0C060F
:103B50000C038C01CC006C00FC009C018C030C035A
:103B60000C060C0C0000000000000000000000002B
:103B70000000C000C000C000C000C000C000C00005
:103B8000C000C000C000C000C000C000C000C00035
:103B9000C000C000000000000000000000000000A5
:103BA0000000000000000000000000007C3CFF7EE0
:103BB000C7E383C183C183C183C183C183C183C17F
:103BC00083C183C10000000000000000000000006D
:103BD0000000000000000000000000009807F80F3F
:103BE000381C181818181818181818181818181831
:103BF0001818181800000000000000000000000065
:103C0000000000000000000000000000C003F00FF2
:103C1000300C181818181818181818181818300C0C
:103C2000F00FC003000000000000000000000000D2
:103C3000000000000000000000000000D803F80FA2
:103C4000380C181818181818181818181818380CCC
:103C5000F80FD8031800180018001800180000000A
:103C6000000000000000000000000000C01BF01F6A
:103C7000301C181818181818181818181818301C8C
:103C8000F01FC01B001800180018001800180000D2
:103C9000000000000000000000000000B007F0037A
:103CA0007000300030003000300030003000300054
:103CB00030003000000000000000000000000000A4
:103CC000000000000000000000000000E003F0031E
:103CD000380E180C3800F003C007000C180C380E12
:103CE000F007E003000000000000000000000000FA
:103CF000000000008000C000C000C000F007F00716
:103D0000C000C000C000C000C000C000C000C000B3
:103D1000C007800700000000000000000000000055
:103D20000000000000000000000000001818181833
:103D30001818181818181818181818181818381CDF
:103D4000F01FE0190000000000000000000000006B
:103D50000000000000000000000000000C18180C1B
:103D6000180C180C30063006300660036003600340
:103D7000C001C001000000000000000000000000C1
:103D8000000000000000000000000000C141C1412F
:103D9000C3616363636363633636363636361C1C31
:103DA0001C1C1C1C000000000000000000000000A3
:103DB0000000000000000000000000001C38381C5B
:103DC000300C600660036003600360036006300C23
:103DD000381C1C380000000000000000000000003B
:103DE0000000000000000000000000001830301843
:103DF00030187018600C600CE00CC006C006800320
:103E00008003800380018001C001F0007000000089
:103E1000000000000000000000000000FC1FFC1F6C
:103E2000000C000600038001C00060003000180094
:103E3000FC1FFC1F0000000000000000000000004C
:103E4000000000038001C000C000C000C000C0002E
:103E5000C00060006000300060004000C000C00092
:103E6000C000C000C000C0008001000300000000CE
:103E700000008001800180018001800180018001BB
:103E8000800180018001800180018001800180012A
:103E9000800180018001800180018001800100009B
:103EA00000006000C000C00180018001800180012D
:103EB000800100030003000600030001800180016F
:103EC0008001800180018001C000600000000000CE
:103ED00000000000000000000000000000000000E2
:103EE000F010F81F080F00000000000000000000A4
:103EF00000000000000000000000000000000000C2
:103F000000404040404040404040414141414140EC
:103F100040404040404040404040404040404040A1
:103F20004005020202020202020202020202020230
:103F30000220202020202020202020020202020235
:103F4000020290909090909010101010101010108D
:103F50001010101010101010101010100202020299
:103F600002028888888888880808080808080808DD
:103F700008080808080808080808080802020202D9
:103F800040000000013F0008A83F0008000000209A
:103F90001C000000B4240008C43F00081C000020DE
:103FA000AC050000C424000801000000100000005F
:103FB0000000000000A24A040000FFFF0000000013
:043FC00000000000FD
:04000005080001519D
:00000001FF
