:020000040800F2
:10000000901300206501000887210008851800086A
:1000100085210008AD01000831290008000000001A
:100020000000000000000000000000006122000845
:10003000E701000800000000A92100086322000871
:100040007F0100087F0100087F0100087F01000890
:100050007F0100087F0100087F0100087F01000880
:100060007F0100087F0100087F0100087F01000870
:100070007F010008B10100087F0100087F0100082E
:100080007F0100087F0100087F0100087F01000850
:100090007F0100087F0100087F0100087F01000840
:1000A0007F010008912400087F0100087F010008FB
:1000B000252500087F0100087F0100087F01000856
:1000C0007F0100087F0100087F0100087F01000810
:1000D0007F0100087F0100087F0100087F01000800
:1000E0007F0100087F0100087F0100080000000078
:1000F0000000000000000000000000000000000000
:1001000000000000000000007F0100087F010008DF
:100110007F0100087F0100087F0100087F010008BF
:100120007F0100087F0100087F0100087F010008AF
:100130007F0100087F0100087F0100087F0100089F
:100140007F0100087F0100087F0100087F0100088F
:10015000DFF80CD000F018F80048004755290008D7
:10016000901300200648804706480047FEE7FEE758
:10017000FEE7FEE7FEE7FEE7FEE7FEE7FEE7FEE757
:10018000F122000851010008064C074D06E0E06826
:1001900040F0010394E8070098471034AC42F6D3CE
:1001A000FFF7DAFFFC4100081C420008FEE70000F0
:1001B000014800F019B800004C0F002030B590F84D
:1001C00040500124AC40C56B6C60046863604368B8
:1001D000102B036803D099600068C26030BD9A603C
:1001E0000068C16030BD70472DE9F05FC16B0A68DF
:1001F00001680B68046C4FF0040808FA04F8844D99
:10020000844E854FDFF814C2DFF81492DFF814A291
:10021000DFF814B2DFF814E218EA020F65D05FEAE3
:10022000437862D50A68920603D40A6822F0040271
:100230000A60DFF8F0814FF48062016808F1140869
:1002400013011402414524D9A9420DD0B1420FD067
:10025000B9421AD0614515D0494515D0514501D153
:10026000120312E0594501D104220EE0714501D17B
:1002700040220AE06D4D1435A94206D06B4A28325F
:10028000914201D11A4600E022466749091F0A60DF
:1002900029E0A94213D0B14215D0B94220D061451E
:1002A0001BD049451BD0514502D14FF4800217E0C5
:1002B000414502D14FF0806212E0594501D104223C
:1002C0000EE0714501D140220AE0584D1435A94293
:1002D00006D0564A2832914201D11A4600E0224601
:1002E0004B4908394A60C16A71E04FF0020808FAC8
:1002F00004F818EA020F70D05FEA83786DD50A68B7
:10030000920606D40A6822F00A020A60012180F8E7
:100310002110DFF810814FF40072016808F1140811
:1003200013011402414524D9A9420DD0B1420FD086
:10033000B9421AD0614515D0494515D0514501D172
:10034000120312E0594501D102220EE0714501D19C
:1003500020220AE0354D1435A94206D0334A28320E
:10036000914201D11A4600E022462F49091F0A6036
:1003700029E0A94213D0B14215D0B94220D061453D
:100380001BD049451BD0514502D14FF4001217E054
:10039000414502D14FF0007212E0594501D10222CD
:1003A0000EE0714501D120220AE0204D1435A9420A
:1003B00006D01E4A2832914201D11A4600E0224658
:1003C000134908394A60002180F82010816A002909
:1003D0001CD0BDE8F05F0847FFE70825A54015429F
:1003E00014D01A0712D50A6822F00E020A6090F89B
:1003F0004020C36B012101FA02F25A60816380F848
:100400002110002180F82010016BE0E7BDE8F09F8B
:10041000080002401C00024030000240440002403C
:10042000580002406C000240080402401C040240D4
:1004300030B560B11C4A03681421934209D21B4AAB
:100440001A44B2FBF1F18900016419490AE0012064
:1004500030BD154A52421A44B2FBF1F189000164E1
:1004600011490839C163022180F821101A6843F646
:10047000F0718A43F0E901142143D0E902452C438D
:100480002143046921434469214384692143114381
:100490001960002141628162C162016341630122EE
:1004A00042770177084630BD08040240F8FFFDBFDF
:1004B0000000024070B5044690F820000025012895
:1004C0000CD0012084F8200094F821600020012E37
:1004D00006D084F820000225284670BD022070BD99
:1004E000022684F82160A0632068066826F00106D1
:1004F00006602046FFF762FEE06A00282068016877
:1005000002D041F00E0106E021F0040101602068F4
:10051000016841F00A0101602068016841F00101B1
:100520000160D9E731B500F0F3F8009C0546601C86
:1005300000D0641C00F0ECF8401BA042FAD338BD98
:100540002DE9F84FDFF890A100220AF1040B1446C0
:1005500001274FF00F090BF1040E00BF0B6807FADB
:1005600004F52B40AB4274D1DFF870C14E68A6EBA6
:100570000C0866452BD00DDC032E34D005DC36B3D9
:10058000012E19D0022E2FD11BE0112E16D0122EC3
:100590002AD119E0B8F5881F19D006DCB8F5803FDC
:1005A00015D0B8F5801F1FD111E0B8F5001F0ED08F
:1005B000B8F5041F18D10AE0CA6815E0CA68121D10
:1005C00012E0CA6808320FE0CA680C320CE08A6890
:1005D0002AB1012A4FF0080203D0456104E0042249
:1005E00002E0056100E00022FF2B01D8064601E091
:1005F00000F104064FEA840501D9A5F12005D6F8DB
:1006000000C009FA05F82CEA080C02FA05F54CEAD4
:10061000050CC6F800C04D68ED0057D5304DAE69E9
:1006200046F00106AE61AD6924F0030605F0010550
:1006300000952C4D06EB050CDCF80850A6074FEA98
:10064000167809FA08F6B543274EB04202D10026C3
:1006500010E03BE0254EB04201D101260AE0244ED5
:10066000B04201D1022605E0224EB04201D103265C
:1006700000E0042606FA08F62E43CCF808604D6820
:10068000DAF80060ED03554601D51E4300E09E43B5
:100690002E604D68DBF80060AD035D4601D51E435A
:1006A00000E09E432E604D68DEF80060ED02754666
:1006B00001D51E4300E09E432E604D68AD020E4DF5
:1006C0002E6801D51E4300E09E432E60641C102C52
:1006D000FFF444AFBDE8F88F0004014000001110A2
:1006E000001002400000014000080140000C0140E1
:1006F00000100140001401400C04014080680840D3
:1007000000D0012070470AB1016170470904FBE77E
:10071000014800687047000000000020024801689E
:10072000491C01607047000000000020074810B518
:10073000016841F010010160032000F08BF80020F7
:1007400000F006F800F018F8002010BD002002406C
:1007500010B5044607484FF47A710068B0FBF1F019
:1007600000F0CBFC00222146501E00F053F8002080
:1007700010BD0000040000201E4808B5816941F04A
:1007800001018161806900F001000090032000F008
:1007900061F8002211466FF00B0000F03BF80022D8
:1007A00011466FF00A0000F035F8002211466FF094
:1007B000090000F02FF800221146501F00F02AF81F
:1007C00000221146101F00F025F800221146901E4D
:1007D00000F020F800221146501E00F01BF80648D9
:1007E000416821F0E0614160416841F08061416011
:1007F00008BD0000001002400000014000F01F0290
:10080000012191404009800000F1E020C0F8001172
:1008100070470000F0B40E4B1B680C46C3F3022374
:10082000C3F10705042D00D90425191D072901D29C
:10083000002300E0DB1E012606FA05F1491E2140D7
:1008400099409E40761E16403143F0BC01F09CBC9E
:100850000CED00E0064900F0070208684FF6FF03C0
:10086000184040EA0220034A104308607047000025
:100870000CED00E00000FA052DE9F047DFF83C81BF
:1008800005460E46D8F8000000F00700B0420CD232
:10089000D8F8001021F007013143C8F80010D8F84B
:1008A000000000F00700B04263D12878444C800774
:1008B00005D56068A96820F0F000084360602878DA
:1008C000C00745D06868012816D02168022816D0D4
:1008D000890700294DDA616821F003010143616055
:1008E000FFF716FF6968074641F2883001290FD0EB
:1008F0000229814619D027E021688903E9E78901A7
:10090000E7E700BFFFF704FFC11B494501D918E025
:1009100081466068C0F381000128F3D118E000BF70
:10092000FFF7F6FEC11B49450BD86068C0F3810094
:100930000228F5D10CE000BFFFF7EAFEC11B4945D4
:1009400002D90320BDE8F087606810F00C0FF3D1E6
:10095000D8F80010404601F00701B1420BD90168F8
:1009600021F0070131430160006800F00700B04248
:1009700001D00120E6E72878400705D56068E968DE
:1009800020F4E060084360602878000706D56068BE
:10099000296920F4605040EAC100606000F03CF832
:1009A0006168084AC1F30311515CC84006490860F8
:1009B0000020FFF7CDFE0020C4E700000020024029
:1009C00000100240143000080400002001480068B4
:1009D0007047000004000020044805490068496889
:1009E000044AC1F30221515CC84070470400002052
:1009F0000010024024300008044805490068496896
:100A0000044AC1F3C221515CC84070470400002071
:100A1000001002402430000810B51DA288B00FCA93
:100A200004AC84E80F001EA30FCB8DE80F00204913
:100A30004B68204803F00C02042A02D0082A02D096
:100A40001D4808B010BD04AAC3F38344DB03125D44
:100A50001BD5CB6ACC6A03F00F031DF80330E40307
:100A60000AD5CC6AC96AC4F30314641CB0FBF4F061
:100A7000C1F30321891C4843B0FBF3F09DF81D101E
:100A800050439142DDD14008DBE70C485043D8E7A2
:100A9000000004050607080900000000000D000022
:100AA0000102030405060708090A0B0C0D0E0F10BE
:100AB0000010024040787D0100127A0000093D00DC
:100AC0002DE9F84F04460078EA4DC00748D0686821
:100AD000C0F38100012807D06868C0F381000228B4
:100AE00009D16868C00306D52868800338D5A06896
:100AF00000286FD034E0A068B0F5803F0BD010B173
:100B0000B0F5A02F11D0286820F480302860286824
:100B100020F4802002E0286840F480302860A0683B
:100B200088B1FFF7F5FD064609E0286840F480200B
:100B30002860F0E7FFF7ECFD801B642878D8286870
:100B40008003F7D50CE0FFF7E3FD064605E000BFA4
:100B5000FFF7DEFD801B6428F0D828688003F7D4F7
:100B60002078C54E80074FF001094FF000073CD5B3
:100B7000686810F00C0F07D06868C0F38100022885
:100B800009D16868C00306D42868800715D5606954
:100B900001281FD111E06069B8B1C6F80090FFF7D5
:100BA000B7FD804606E000BFFFF7B2FDA0EB0800EE
:100BB0000228C3D828688007F6D52868A16920F0E4
:100BC000F80040EAC10028600FE03760FFF7A0FDA1
:100BD000804607E02DE100BFFFF79AFDA0EB08007B
:100BE0000228ABD828688007F6D4207800072ED5D5
:100BF000A248E169E9B1C0F80090FFF789FD80469D
:100C000006E000BFFFF784FDA0EB0800022895D89E
:100C1000686A8007F6D59A484FF4FA510068B0FB2D
:100C2000F1F0009000BF0098411E0091FAD20EE052
:100C3000B0E00760FFF76CFD804605E0FFF768FD58
:100C4000A0EB0800022887D8686A8007F6D42078CD
:100C5000400763D5E8694FF00008C00009D4E8698F
:100C600040F08050E861E8694FF0010800F08050E2
:100C7000009084480168C90512D40168834641F494
:100C800080710160FFF744FD824605E0FFF740FDFB
:100C9000A0EB0A0064287DD8DBF80000C005F5D57C
:100CA000206901280AD008B1052813D0286A20F04D
:100CB00001002862286A20F0040002E0286A40F05F
:100CC00001002862206941F2883B98B1FFF720FDBE
:100CD00082460BE0286A40F004002862EEE700BF7D
:100CE000FFF716FDA0EB0A01594553D8286A800783
:100CF000F6D50CE0FFF70CFD824605E0FFF708FD96
:100D0000A0EB0A01594545D8286A8007F6D4B8F106
:100D1000000F03D0E86920F08050E861E06AD0B3AA
:100D20006968C90307D56968C1F38101022902D145
:100D3000E96AC9037DD4022808D0E86A20F480302B
:100D4000E862B766FFF7E4FC80463BE02868C00035
:100D500005D5E86A616B00F0F000884269D1B7669A
:100D6000FFF7D6FC804605E0FFF7D2FCA0EB0800B9
:100D7000642874D828680001F6D4E86A616B20F012
:100D8000F0000843E862E86A216B20F470600843D1
:100D9000E86201E063E018E0C6F86890FFF7B8FC8D
:100DA000804605E0FFF7B4FCA0EB0800642856D8A5
:100DB00028680001F6D508E0FFF7AAFCA0EB0800C0
:100DC00064284CD828680001F6D4206A90B369687A
:100DD000C1F3810102294AD00228376603D0FFF708
:100DE00097FC04463EE0FFF793FC074605E000BF92
:100DF000FFF78EFCC01B022831D828688001F7D489
:100E0000606AB0F5803F09D1E86A61680843E8622A
:100E1000E86AE16820F00F000843E862D4E90901BC
:100E20000843696821F4741108436860C6F860904B
:100E300001E01CE019E0FFF76BFC044605E000BF91
:100E4000FFF766FC001B022809D828688001F7D547
:100E50000BE000BFFFF75CFC001B022802D9032057
:100E6000BDE8F88F28688001F4D40020F8E701205D
:100E7000F6E70000001002400000424280044242B7
:100E8000040000200070004090F85100704770B5D9
:100E9000040005D00025A56294F8510010B104E0CB
:100EA000012070BD204600F033F8022084F8510084
:100EB0002068016821F040010160D4E90101084384
:100EC000D4E903121143084361690843218B01F4FB
:100ED00000710843E1690843216A0843A16A084395
:100EE00021680860A069042101EA1040616A084392
:100EF000216848602168E06A08612068C16921F4BE
:100F00000061C1616565012084F85100002070BD59
:100F100010B50068144986B0884222D11348C169CF
:100F200041F40041C161C069114C00F400400490DB
:100F30004FF4A050009002200190032003906946D6
:100F40002046FFF7FDFA0021E014CDE900010291EF
:100F500069462046FFF7F4FA0648416841F080519F
:100F6000416006B010BD0000003C0040001002408F
:100F700000100140000001402DE9F84F044690F8B0
:100F800050000026994617460D4601280DD04FF017
:100F9000010B84F850B0FFF7BBFB804694F851007A
:100FA000B246012804D0022694E00220BDE8F88F62
:100FB000002D7BD0002F79D0032084F85100C4F895
:100FC00054A02563A786E786C4F838A0A4F83CA0FF
:100FD000A4F83EA0C4F844A0C4F840A0A068B0F5AE
:100FE000004F04D12068016841F48041016020680D
:100FF0000168490603D4016841F040010160E068DE
:10100000B0F5006F606804D030B3E08E012823D0C3
:101010003EE010B1E08E01281AD135F8021B20689D
:1010200005E020688168890706D535F8021BC16094
:10103000E08E401EE0860BE0B9F1000F34D0B9F12C
:10104000FF3F05D0FFF764FBA0EB080149452BD219
:10105000E08E0028E5D11EE0216815F8010B087329
:1010600006E020688168890706D515F8011B017321
:10107000E08E401EE0860BE0B9F1000F14D0B9F10C
:10108000FF3F05D0FFF744FBA0EB080149450BD219
:10109000E08E0028E5D14B46012202212046CDF802
:1010A000008001F092F810B1032613E011E04246EF
:1010B0004946204601F079F818B1012620206065E4
:1010C00008E0A06818B92068C16880680090606D69
:1010D00000B1012684F851B084F850A0304665E78D
:1010E0004FF0E0210428086903D020F004000861D3
:1010F000704740F00400FAE7704710B5401EB0F1A9
:10110000807F01D3012010BD4FF0E02460610F21EA
:10111000601701F039F80020A0610720206100204D
:1011200010BD10B5FFF7E8FF10BD7047704730B530
:1011300090F83C20012A20D0012280F83C20022394
:1011400080F83D3003685C6824F070045C600368DC
:101150005C680D682C435C6003689C6824F0800424
:101160009C6003689C6849680C439C6080F83D2043
:10117000002180F83C10084630BD022030BD10B57B
:10118000040003D094F83D0010B107E0012010BD29
:10119000002084F83C00204600F00CF8022084F87F
:1011A0003D00211D206801F0C3F9012084F83D00B5
:1011B000002010BD38B5054600682E4A2E499042E1
:1011C0000ED1886940F4006088618869002200F4CB
:1011D0000060009002211920FFF71CFB192038E065
:1011E000B0F1804F27D0254A904236D1C86940F0EF
:1011F0000200C861C869234C00F00200009020483A
:101200002060102060600020A0608020E06040002E
:101210002061800060612020A0610002E061204622
:10122000FFF706F918B1C62117A001F082FB2C6365
:101230002C62656238BDC86940F00100C861C869A8
:10124000002200F00100009002211C20FFF7E2FACA
:101250001C20BDE83840FFF7D1BA124A9042E9D1CC
:10126000C86940F00400C861C86900F0040000903B
:1012700038BD0000002C0140001002400004004076
:10128000300002404C0F00202E2E2F5372632F731C
:10129000746D3332663178785F68616C5F6D73703E
:1012A0002E630000000800400168CA6842F0010295
:1012B000CA600068016841F00101016000207047C8
:1012C00070B5044690F83C00012817D0012584F839
:1012D0003C50022084F83D002068826822F07702AA
:1012E00022F47F4282600868502837D00DDC202825
:1012F00059D005DC88B3102841D151E0022070BDDF
:10130000302853D040283AD13FE060282ED07028B2
:101310000BD0B0F5805F03D0B0F5005F2FD110E0A7
:101320002068816821F0070115E0CB68D1E901212F
:10133000206801F06DF92168886840F077008860C6
:101340001DE0CB68D1E90121206801F061F9206836
:10135000816841F48041816011E01EE0CA684968FB
:10136000206801F009FA5021206806E0CA6849683F
:10137000206801F012FA6021206801F053F984F826
:101380003D50002084F83C0070BDCA684968206860
:1013900001F0F2F940212068EFE700212068ECE736
:1013A00010212068E9E720212068E6E73021206845
:1013B000E3E77047704770B50446006801694FF075
:1013C0000005C943890715D4C168C943890711D4E9
:1013D000E91E01610120207720688069800720468E
:1013E00002D0FFF7E7FF04E000F0AAF8204600F083
:1013F0002CF9257720680169C943490717D4C168CA
:10140000C943490713D46FF004010161022020771A
:101410002068806910F4407F204602D0FFF7CAFFA1
:1014200004E000F08DF8204600F00FF925772068E1
:101430000169C943090716D4C168C943090712D411
:101440006FF008010161042020772068C0698007DF
:10145000204602D0FFF7AEFF04E000F071F820460E
:1014600000F0F3F8257720680169C943C90617D44D
:10147000C168C943C90613D46FF010010161082087
:1014800020772068C06910F4407F204602D0FFF723
:1014900091FF04E000F054F8204600F0D6F82577DC
:1014A00020680169C943C90708D1C168C943C90790
:1014B00004D1891E0161204600F03AF920680169D3
:1014C000C943090609D4C168C943090605D46FF0A8
:1014D000800101612046FFF728FE20680169C943A9
:1014E000490609D4C168C943490605D46FF04001D3
:1014F0000161204600F01DF920680169C943890691
:101500000BD4C168C943890607D46FF0200101617B
:101510002046BDE87040FFF709BE70BD1FB50068EA
:101520000549884207D10220009001900390694646
:101530000248FFF705F81FBD00040040000C014001
:10154000704770B5044690F83C000D4601280DD058
:10155000012684F83C60022084F83D0042B1042A50
:1015600018D0082A2AD00C2A4DD139E0022070BDAB
:10157000206801F05FF82068816941F0080181610D
:101580002068816921F004018161206881692A69EC
:10159000114311E0206801F075F82068816941F479
:1015A000006181612068816921F480618161206826
:1015B00081692A6941EA0221816124E0206801F001
:1015C0008DF82068C16941F00801C1612068C169D6
:1015D00021F00401C1612068C1692A69114311E049
:1015E000206801F0A7F82068C16941F40061C16179
:1015F0002068C16921F48061C1612068C1692A69DC
:1016000041EA0221C16184F83D60002084F83C0079
:1016100070BD10B5040003D094F83D0010B107E090
:10162000012010BD002084F83C00204600F00CF89A
:10163000022084F83D00211D206800F079FF012080
:1016400084F83D00002010BD7047704770B5044617
:1016500090F83D0016460D46022805D094F83D004E
:10166000012805D10EB903B170BD022084F83D00F8
:101670002C482D4935B1042D13D0082D34D00C2D14
:101680001ED140E0626A9062606A0163226831465E
:101690003432606AFEF70EFF2068C16841F40071C1
:1016A0000DE0A26A9062A06A016322683146383276
:1016B000A06AFEF7FFFE2068C16841F48061C16046
:1016C00001222946206800F071FF184920688842ED
:1016D00003D1416C41F4004141642068016841F04C
:1016E00001010160002070BDE26A9062E06A01635E
:1016F000226831463C32E06AFEF7DCFE2068C168B1
:1017000041F40061DBE7226B9062206B0163226889
:1017100031464032206BFEF7CDFE2068C16841F4AF
:101720008051CCE7C325000801260008002C0140A9
:101730007047704770B5040004D094F83900002554
:1017400010B106E0012070BD84F83850204600F04A
:1017500023F8242084F839002068C16821F400515E
:10176000C160204601F02CF82068016921F4904105
:1017700001612068416921F02A0141612068C16846
:1017800041F40051C160E563202084F8390084F8F9
:101790003A00002070BD0000F0B5DFF8CCC003684F
:1017A00000243248402702210322314E314D85B0BA
:1017B00063451AD1836943F4804383618069CDE92D
:1017C000007100F48040CDE9032069463046FEF701
:1017D000B7FE8020CDE90004694630460294FEF74A
:1017E000AFFE686840F004001EE0DFF88CC063457F
:1017F0001DD1C36943F40033C361C0691F4E00F4B7
:10180000003004902020CDE9000103926946304663
:10181000FEF796FECDE90074694630460294FEF765
:101820008FFE686840F00800686005B0F0BD144D98
:10183000AB42FAD1C36943F48023C361C069039208
:1018400000F4802004902815CDE900016946304657
:10185000FEF776FEE814CDE90004694630460294AE
:10186000FEF76EFEE1E70000003801400010024084
:10187000000C014000000140004400400014014001
:1018800000480040FEE7000001B500224FF48071DF
:101890000748FEF738FFC823012269460548FFF7CD
:1018A0006BFB0448FFF7F0FA0328FAD008BD0000EC
:1018B00000100140340D002070B50646002440F2AF
:1018C0003F11204600F080F900F0C4FA4FF496353D
:1018D000304600F093FA641CAC42F9D3BDE8704086
:1018E000012211020148FEF70EBF00000010014066
:1018F000203AD2B2034B02EB420203EB021200F099
:101900001BB800002C3000082DE9F0410E460746B8
:10191000002540F23F1407E021463846FFF7E8FF74
:10192000103C6D1CA4B2761C3278002A01D0142D14
:10193000F2D3BDE8F08100002DE9F74F914604464F
:101940000026019900F040F9DFF85480DFF854B028
:1019500001274FF4807A00BF00F07CFA5FF00005A9
:1019600039F8160007FA05F10842404601D14088CF
:1019700000E0008800F042FA6D1C102DF0D3012227
:1019800051465846FEF7BFFE641CE4B2204601995A
:1019900000F01AF9761C182EDED3BDE8FE8F000089
:1019A00008000020001001402DE9F84F8146032077
:1019B0008846A0EB42070025144664E008EB0400CB
:1019C00081B209EB050B00900BF0FF0000F0FCF872
:1019D0002F4E308800F02EFAA8EB040A1FFA8AF185
:1019E0000BF0FF0000F0F0F8308800F023FA0098C8
:1019F000A9EB050B81B20BF0FF0000F0E5F8308891
:101A000000F018FA1FFA8AF10BF0FF0000F0DCF882
:101A1000308800F00FFA08EB050B09EB040A1FFAF7
:101A20008BF10AF0FF0000F0CFF8308800F002FAE6
:101A3000A8EB050081B200900AF0FF0000F0C4F8A6
:101A4000308800F0F7F9A9EB040A1FFA8BF10AF0CD
:101A5000FF0000F0B9F8308800F0ECF9009881B28E
:101A60000AF0FF0000F0B0F8308800F0E3F9002F32
:101A700003DA07EB8507BF1D04E0281B07EB80078F
:101A8000641E0A376D1CA54298D9BDE8F88F000086
:101A9000080000202DE9F74FDFF8B89090460321A9
:101AA000A1EB4806B9F8021082B00746002415469B
:101AB000ADF80010BDF80010A9F800104FF6FF7A3D
:101AC00035E09DB103980AEA4502284481B20090AE
:101AD000381B9346C0B2002300F03EF800985A46E7
:101AE00081B23819C0B2002300F036F89CB10398D7
:101AF0000AEA4402204481B20090781B9346C0B2A7
:101B0000002300F029F800985A4681B27819C0B233
:101B1000002300F021F8002E03DA06EB8406B61D40
:101B200004E0601B06EB80066D1E0A36641CAC42A6
:101B3000C7D9B9F80010ADF80010BDF80010A9F829
:101B40000010039905B0F8B24246BDE8F04FFFF728
:101B50002BBF0000080000202DE9F04798461746EB
:101B600089460546002400F02FF8114EB8F1000F09
:101B700019D100F06FF903E0308800F03FF9641CE0
:101B8000BC42F9D3BDE8F047012211020948FEF733
:101B9000BABD308800F04EF96D1CEDB249462846BA
:101BA00000F012F8641CBC42F3D3BDE8F0870000DB
:101BB000080000200010014001B5BDF800000149F7
:101BC000488008BD0800002010B50C4601462020C2
:101BD00000F04AF92146BDE81040212000F044B948
:101BE00001B5BDF800000149088008BD08000020CB
:101BF00010B5012280218048FEF785FD3220FEF7D6
:101C000091FC4FF40041E52000F02EF90121002065
:101C100000F02AF94FF48071012000F025F94FF40B
:101C2000E061022000F020F941F23001032000F0D1
:101C30001BF90021042000F017F940F202210820CE
:101C400000F012F90021092000F00EF900210A200D
:101C500000F00AF900210C2000F006F900210D2007
:101C600000F002F900210F2000F0FEF80021102002
:101C700000F0FAF80021112000F0F6F800211220FF
:101C800000F0F2F80021132000F0EEF8C820FEF773
:101C900049FC41F2B071102000F0E6F840F2371133
:101CA000112000F0E1F83220FEF73CFC40F239113F
:101CB000122000F0D9F83220FEF734FC4FF4E8513E
:101CC000132000F0D1F81321292000F0CDF83220A4
:101CD000FEF728FC0021202000F0C6F8002121207A
:101CE00000F0C2F80621302000F0BEF840F20111E9
:101CF000312000F0B9F80321322000F0B5F84FF49C
:101D00008371352000F0B0F840F60231362000F043
:101D1000ABF840F20231372000F0A6F840F207712C
:101D2000382000F0A1F80721392000F09DF84FF489
:101D3000C0613C2000F098F840F20B213D2000F0FB
:101D400093F80021502000F08FF8EF21512000F08F
:101D50008BF80021522000F087F840F23F11532009
:101D600000F082F84FF42741602000F07DF8012157
:101D7000612000F079F800216A2000F075F8002158
:101D8000802000F071F80021812000F06DF8002122
:101D9000822000F069F80021832000F065F800211E
:101DA000842000F061F80021852000F05DF810210A
:101DB000902000F059F80021922000F055F80321FE
:101DC000932000F051F84FF48871952000F04CF802
:101DD0000021972000F048F80021982000F044F8F6
:101DE00041F21801032000F03FF8BDE8104040F236
:101DF0007311072000F038B80014014001B5C82362
:101E000001220B480DF10101FFF7B6F80848FFF772
:101E10003BF80328FAD0C823012269460448FFF79B
:101E2000ABF80348FFF730F80328FAD008BD0000EC
:101E3000340D002010B5044600F00CF82046FFF7E2
:101E4000DDFF0122BDE8104011020148FEF75BBC36
:101E50000010014010B5222000F02EF8BDE810401F
:101E60007220FFF711BD000013B500F025F87220B5
:101E7000FFF70AFDC82301220DF105010C48FFF709
:101E80007BF80B48FFF700F80328FAD0C82301229B
:101E900001A90748FFF770F80548FEF7F5FF03288A
:101EA000FAD0012211020348FEF72DFC1CBD0000F0
:101EB000340D00200010014001B57020FFF7E4FC54
:101EC0000C49002008600C48FEF7DEFF0328FAD01A
:101ED000C823012269460848FFF74EF80648FEF776
:101EE000D3FF0328FAD0012211020448FEF70BFCAD
:101EF00008BD00000C3C0040340D002000100140E3
:101F00002DE9F0432D4885B0816941F040018161A0
:101F1000816901F040010491816941F0080181610A
:101F2000816901F008010491816941F0100181612A
:101F3000816901F010010491816941F02001816102
:101F400080691F4F00F0200004900022E0213846F5
:101F5000FEF7D9FBDFF86C80BE1500223146404603
:101F6000FEF7D1FBDFF86090002280214846FEF7A3
:101F7000CAFB182000900020019002906946384664
:101F8000FEF7DEFAE0200124CDE9000403256946CE
:101F900003953846FEF7D4FACDE900646946404619
:101FA0000395FEF7CDFA8020CDE90004694603953C
:101FB0004846FEF7C5FA05B0BDE8F08300100240C0
:101FC0000018014000100140001401400E4810B5F7
:101FD0000C4901604FF4827141600021022281604E
:101FE000C0E90312012242615202C0E906210162E6
:101FF000416281620A21C162FEF749FF002800D0D8
:10200000FEE710BD003C0040340D002010B5144820
:1020100086B01249016047210024C0E9011440F252
:10202000E731C0E9031444618461FFF7A8F800B107
:10203000FEE74FF48050009069460948FFF740F9E9
:1020400000B1FEE7049404A905480594FFF76FF872
:10205000002800D0FEE706B010BD0000002C0140B3
:102060008C0D002010B5134886B04FF08041016000
:1020700047210024C0E9011440F2E731C0E903140C
:102080008461FFF77CF800B1FEE74FF480500090C8
:1020900069460848FFF714F900B1FEE7049404A963
:1020A00004480594FFF743F8002800D0FEE706B087
:1020B00010BD0000CC0D002010B51C488EB01A4990
:1020C000016002210024C0E901141D21C0E90314AC
:1020D0008461FFF754F800B1FEE74FF48050079099
:1020E00007A91248FFF7ECF800B1FEE70F48FFF729
:1020F00090FA00B1FEE70B940BA90C480C94FFF783
:1021000016F800B1FEE76020CDE9000402940C222D
:10211000694606480494FFF714FA00B1FEE7034845
:10212000FFF7FCF90EB010BD000400400C0E0020BB
:1021300010B5134886B01149016047210024C0E959
:10214000011440F2E731C0E903148461FFF717F886
:1021500000B1FEE74FF48050009069460848FFF751
:10216000AFF800B1FEE7049404A905480594FEF712
:10217000DEFF002800D0FEE706B010BD00080040DA
:102180004C0E0020FEE770470907090E002806DA0A
:1021900000F00F0000F1E02080F8141D704700F1FE
:1021A000E02080F800147047704738B50B46009265
:1021B00004460022802100F008F8002804D0606D59
:1021C00040F020006065032038BD2DE9F0411D4638
:1021D00017460E460446DDF8188035E0681C33D0FB
:1021E0002DB1FEF795FAA0EB0800A8422CD3206889
:1021F000416821F0E00141606068B0F5827F0BD159
:10220000A068B0F5004F02D0B0F5806F04D120680F
:10221000016821F040010160A06AB0F5005F0AD1B9
:10222000206801684DF6FF72114001602068016866
:1022300041F400510160012084F85100002084F82D
:1022400050000320BDE8F0812068806836EA000075
:1022500004D00020B842C1D10020F3E70120F9E703
:10226000704710B5FEF75AFABDE81040FEF759BFA7
:1022700030B593B0012528040421CDE902010224E0
:10228000CDE908400095019005954FF4E010CDE9A7
:102290000A044FF4C0600C9040200D906846FEF791
:1022A0000FFC00B1FEE70F20CDE90E0400204FF433
:1022B0008061CDE91001129002210EA8FEF7DCFA30
:1022C00000B1FEE7FEF782FB4FF47A71B0FBF1F04C
:1022D000FEF713FF0420FEF703FF04480567002202
:1022E0001146501EFEF796FA13B030BD0000424270
:1022F0001048016841F00101016041680E4A114037
:10230000416001680D4A11400160016821F480219B
:102310000160416821F4FE014160016821F0A05193
:1023200001604FF47F0181600021C1620449C00354
:1023300008607047001002400000FFF0FFFFF6FE4B
:1023400008ED00E070B51C4D08212846FEF7D6F9CF
:1023500070B1002000EB800040F3931040011D217C
:1023600090FBF1F01138002800DC002080B270BD35
:10237000002240212846FEF7C6F9D02000F05AF886
:10238000002000F057F8902000F054F8002000F0F2
:1023900051F80446002000F04DF80146600140EA83
:1023A000D100C0F30B04012240212846FEF7ABF90F
:1023B000A4F6FF746042CDE70018014070B51C4DD3
:1023C00008212846FEF79AF980B10024C4EB0410D6
:1023D00040F31320C0EB00100001D92190FBF1F075
:1023E0000C38002800DC002080B270BD00224021A3
:1023F0002846FEF788F9D02000F01CF8002000F0F5
:1024000019F80446902000F015F80646002000F068
:1024100011F8002000F00EF8610141EAD600C0F387
:102420000B04012240212846FEF76DF9CEE700009B
:10243000001801402DE9F0410024144F06462546BE
:10244000012280213846FEF75EF9300601D50122CF
:1024500000E0002220213846FEF755F900228021B5
:102460003846FEF750F97006060E6006040E10217D
:102470003846FEF743F9012801D144F001046D1CF0
:10248000EDB2082DDCD32046BDE8F08100180140F4
:102490002DE9F84F2048FEF78EFF20494FF0000E3F
:1024A000CDF800E091F800B091F802A091F8049006
:1024B0001B4A704640246D468DF800B08DF801A08F
:1024C00000218DF8029011274FF0090C00236E5C5B
:1024D0005FEA066802D522F8107001E022F810C009
:1024E000401C76005B1C5BB200B26E54082BEEDB26
:1024F000491C49B20329E9DB641E64B2002CDBDC11
:102500000021734622F81030401C491C49B200B229
:102510005429F7DBBDE8F88F8C0D0020B40C0020A7
:102520000C0000200148FEF746BF0000CC0D002043
:10253000F0B50268194B1A4C1A4D1B4E4FF08047EC
:10254000984207D0B84205D0A04203D0A84201D09B
:10255000B04204D122F0700C4A6842EA0C02984260
:1025600007D0B84205D0A04203D0A84201D0B04263
:1025700003D122F44074CA68224322F080044A69DD
:10258000224302608A68C2620A688262984201D16C
:102590000969016301214161F0BD0000002C014087
:1025A0000004004000080040000C004010B501236A
:1025B000046A8B409C430462036A8A4013430362AB
:1025C00010BD10B5446A012184F83D10626A824250
:1025D00001D121770EE0A16A814201D1022008E0F9
:1025E000E16A814201D1042003E0216B814201D1E3
:1025F000082020772046FFF728F80020207710BD1C
:1026000010B5406A012180F83D10FEF7D2FE10BDE2
:1026100010B5846842EA032224F47F440A4322432B
:10262000826010BD826822F070020A4342F0070106
:102630008160704730B5026A22F001020262026ACC
:102640004368846924F073050C682C4322F002056A
:102650008A682A430A4DA8420BD122F00805CA68AD
:1026600023F440732A434D6922F004021D438B6911
:102670002B434360846149684163026230BD0000BE
:10268000002C014030B5026A22F010020262026A98
:10269000436884690D6824F4E64444EA05248D689F
:1026A00022F0200242EA05120B4DA8420ED1CD685D
:1026B00022F0800242EA05124D6923F4406343EAA6
:1026C00085038D6922F0400243EA850343608461FB
:1026D00049688163026230BD002C014030B5026A56
:1026E00022F480720262036A4268C46923F40073B0
:1026F00024F073050C682C438D6843EA05230C4DC8
:10270000A8420ED1CD6823F4006343EA05234D6946
:1027100022F4405242EA05128D6923F4806342EAB2
:1027200005124260C4614968C163036230BD0000A4
:10273000002C014030B5026A22F480520262046A21
:102740004268C3690D6823F4E64343EA05238D68B4
:1027500024F4005444EA0534064DA84204D14D69DE
:1027600022F4804242EA85124260C36149680164F2
:10277000046230BD002C014010B5036A046A24F0E5
:1027800001040462846924F0F00444EA021423F092
:102790000A020A438461026210BD10B5036A23F085
:1027A000100303628369046A23F4704343EA02322C
:1027B00024F0A00343EA01118261016210BD000010
:1027C0002DE9F041044600680169E26821F44051B6
:1027D000114301612169A0680843616908432168C8
:1027E000CA6841F20C639A430243CA602068416997
:1027F000A26921F44071114341614C49206864256C
:10280000322688423CD1FEF7F7F800EBC00101EB1D
:10281000001061688900B0FBF1F7FEF7EDF800EBFE
:10282000C00101EB00106168B0468900B0FBF1F017
:10283000B0FBF5F06FF01801484307EB800106EBA1
:102840000110B0FBF5F000F0F006FEF7D5F800EB54
:10285000C00101EB001061688900B0FBF1F0B0FB32
:10286000F5F006EB0016FEF7C7F800EBC00101EB30
:10287000001061688900B0FBF1F7FEF7BDF83BE09E
:10288000FEF7AAF800EBC00101EB001061688900B7
:10289000B0FBF1F7FEF7A0F800EBC00101EB001070
:1028A0006168B0468900B0FBF1F0B0FBF5F06FF065
:1028B0001801484307EB800106EB0110B0FBF5F06F
:1028C00000F0F006FEF788F800EBC00101EB001005
:1028D00061688900B0FBF1F0B0FBF5F006EB001683
:1028E000FEF77AF800EBC00101EB00106168890087
:1028F000B0FBF1F7FEF770F800EBC00101EB001040
:1029000061688900B0FBF1F0B0FBF5F06FF01801E1
:10291000484307EB800108EB0110B0FBF5F021689C
:1029200000F00F0030448860BDE8F08100380140BD
:10293000FEE7FEE702E008C8121F08C1002AFAD12C
:1029400070477047002001E001C1121F002AFBD12F
:102950007047000008B5FDF7E9FEFFF789FCFFF7B7
:10296000CFFAFA48416941F0010141614069002212
:1029700000F00100009007210D20FDF74BFF0D2016
:10298000FDF73CFFFFF722FBF248F1494FF4E13637
:1029900000240160C0E901640C25C460C0E904455D
:1029A0008461C461FEF7C6FE00B1FEE7E948EA496A
:1029B00040380160C0E90164C460C0E90445846135
:1029C000C461FEF7B7FE00B1FEE7FFF71FFBFFF79C
:1029D00049FBE048E14940300160C0E90164C4605E
:1029E000C0E904458461C461FEF7A4FE00B1FEE7BE
:1029F000FFF79EFBFFF760FBFFF7FAF80020FEF7FA
:102A00005BFF4FF206263046FFF7D6F84FF492757B
:102A1000182229461C20FFF73DF84EF6EC073846F1
:102A2000FFF7CAF81822F0211C20FFF733F849F607
:102A300036184046FFF7C0F81822BC211C20FFF7CB
:102A400029F846F2D6194846FFF7B6F81822882129
:102A50001C20FFF71FF843F6962A5046FFF7ACF804
:102A6000182254211C20FFF715F842F2BE4B58469D
:102A7000FFF7A2F8182220211C20FFF70BF840F2E4
:102A80005E50FFF799F8182229465020FFF702F808
:102A900040F2FA50FFF790F81822F0215020FEF78C
:102AA000F9FF40F2B140FFF787F81822BC2150200F
:102AB000FEF7F0FF44F66A50FFF77EF818228821EF
:102AC0005020FEF7E7FF48F60960FFF775F8182277
:102AD00054215020FEF7DEFF4CF6E760FFF76CF85C
:102AE000182220215020FEF7D5FF4FF64770FFF740
:102AF00063F8182229468420FEF7CCFF4FF47E406D
:102B0000FFF75AF81822F0218420FEF7C3FF4FF692
:102B1000C040FFF751F81822BC218420FEF7BAFF0D
:102B20004FF6A420FFF748F8182288218420FEF7EA
:102B3000B1FF47F6A920FFF73FF81822542184205F
:102B4000FEF7A8FF46F2F130FFF736F818222021F1
:102B50008420FEF79FFF7F488038FEF7A5FB804862
:102B6000FEF7A2FB7F4A40F254630C2102F560603D
:102B7000FEF76CFDFFF7E6FB0446FFF71FFCA4F52C
:102B80008571302917D8042815D3302813D8002090
:102B9000FFF712F8182229461C20FEF77BFF30466B
:102BA000FFF70AF8182229461C20FEF773FF362289
:102BB0004321F42089E0A4F1D601302917D8042854
:102BC00015D3302813D80020FEF7F6FF1822F02185
:102BD0001C20FEF75FFF3846FEF7EEFF1822F021BB
:102BE0001C20FEF757FF63221E21E9206DE0A4F1AF
:102BF000A201302917D8042815D3302813D8002073
:102C0000FEF7DAFF1822BC211C20FEF743FF4046E6
:102C1000FEF7D2FF1822BC211C20FEF73BFFB0229A
:102C200027219C2051E0A4F16E01302917D80428F7
:102C300015D3302813D80020FEF7BEFF18228821B4
:102C40001C20FEF727FF4846FEF7B6FF1822882112
:102C50001C20FEF71FFFB7223A21672035E0A4F1C0
:102C60003A01302917D8042815D3302813D800206A
:102C7000FEF7A2FF182254211C20FEF70BFF50463E
:102C8000FEF79AFF182254211C20FEF703FFB522FD
:102C900051213F2019E0241F302C18D8042816D3C6
:102CA000302814D80020FEF787FF182220211C208E
:102CB000FEF7F0FE5846FEF77FFF182220211C2069
:102CC000FEF7E8FEF3229621212000F09BF9FFF7A2
:102CD00039FB0446FFF772FBA4F58571302918D83B
:102CE000382816D3682814D80020FEF765FF18226C
:102CF00029465020FEF7CEFE40F25E50FEF75CFF04
:102D0000182229465020FEF7C5FEF422A9210320EF
:102D10009CE0A4F1D601302926D8382824D368288D
:102D200022D80020FEF748FF1822F0215020FEF79D
:102D3000B1FE40F2FA50FEF73FFF1822F02150207A
:102D4000FEF7A8FED422BC2129E0000000100240BA
:102D500000440040CC0E00200038014000480040F4
:102D60008C0D00200C000020A4F1A201302918D8FD
:102D7000382816D3682814D80020FEF71DFF182223
:102D8000BC215020FEF786FE40F2B140FEF714FF52
:102D90001822BC215020FEF77DFE882296210020BB
:102DA00054E0A4F16E01302918D8382816D36828C9
:102DB00014D80020FEF700FF182288215020FEF7CB
:102DC00069FE44F66A50FEF7F7FE1822882150206B
:102DD000FEF760FE5022AF214C2037E0A4F13A010B
:102DE000302918D8382816D3682814D80020FEF7C0
:102DF000E3FE182254215020FEF74CFE48F60960ED
:102E0000FEF7DAFE182254215020FEF743FE4A2234
:102E1000C3218B201AE0241F302C19D8382817D34F
:102E2000682815D80020FEF7C7FE18222021502060
:102E3000FEF730FE4CF6E760FEF7BEFE18222021BA
:102E40005020FEF727FE3922DC21CD2000F0DAF8F1
:102E5000FFF778FA0446FFF7B1FAA4F58571302937
:102E600017D86C2815D39C2813D80020FEF7A4FE91
:102E7000182229468420FEF70DFE4FF64770FEF714
:102E80009BFE182229468420FEF704FE3B22EB21FC
:102E90001AE0A4F1D601302918D86C2816D39C2842
:102EA00014D80020FEF788FE1822F0218420FEF7B7
:102EB000F1FD4FF47E40FEF77FFE1822F0218420C2
:102EC000FEF7E8FD0722C121FF206FE0A4F1A20177
:102ED000302917D86C2815D39C2813D80020FEF76A
:102EE0006BFE1822BC218420FEF7D4FD4FF6C040B3
:102EF000FEF762FE1822BC218420FEF7CBFD0022E3
:102F00009821E1E7A4F16E01302917D86C2815D378
:102F10009C2813D80020FEF74FFE18228821842019
:102F2000FEF7B8FD4FF6A420FEF746FE18228821D2
:102F30008420FEF7AFFD22225721C5E7A4F13A0114
:102F4000302918D86C2816D39C2814D80020FEF7F6
:102F500033FE182254218420FEF79CFD47F6A92059
:102F6000FEF72AFE182254218420FEF793FD482202
:102F7000552179201AE0241F302C19D86C2817D33A
:102F80009C2815D80020FEF717FE18222021842047
:102F9000FEF780FD46F2F130FEF70EFE18222021EA
:102FA0008420FEF777FD8B227D21602000F02AF837
:102FB0004FF4FC60FEF714FE06A1A820FEF7A4FC67
:102FC0004FF6E070FEF70CFE08A1C020FEF79CFC57
:102FD000D0E5000078787878785475726E4F4E2F6F
:102FE0004F464678787878780000000078787878CE
:102FF0007878785241494E424F5778787878787887
:1030000000000000024B198058809A807047000031
:10301000B40C0020000000000000000001020304C6
:103020000607080900000000010203040000000078
:103030000000000000000000000000000000000090
:103040000000000000000000000000000000000080
:1030500000000000000000000000000000008001EF
:103060008001800180018001800180018001800158
:10307000800180018001800100000000800180014A
:103080000000000000000000000000000000000040
:10309000CC00CC00CC00CC00CC00CC000000000068
:1030A0000000000000000000000000000000000020
:1030B0000000000000000000000000000000000010
:1030C0000000000000000000600C600C600C300686
:1030D0003006FE1FFE1F300638071803FE1FFE1FB6
:1030E000180318038C018C018C0100000000800083
:1030F000E003F80F9C0E8C1C8C188C009800F801D3
:10310000E007800E801C8C188C189C18B80CF00FEF
:10311000E0038000800000000000000000000000CC
:1031200000000E181B0C110C1106110611031103DF
:103130009B018E01C038C06C604460443044304410
:103140001844186C0C380000000000000000E0017A
:10315000F0033807180618063003F001F000F800F5
:103160009C310E33061E061C061C063FFC73F02124
:10317000000000000000000000000000000000004F
:103180000C000C000C000C000C000C0000000000F7
:10319000000000000000000000000000000000002F
:1031A000000000000000000000000000000000021D
:1031B00000038001C000C0006000600030003000EB
:1031C000300030003000300030003000600060001F
:1031D000C000C000800100030002000000002000C9
:1031E0006000C000800180010003000300060006AB
:1031F00000060006000600060006000600030003A5
:1032000080018001C000600020000000000000007C
:103210000000000000000000C000C000D806F80751
:10322000E00130033807000000000000000000004B
:10323000000000000000000000000000000000008E
:10324000000000000000000080018001800180017A
:103250008001FC3FFC3F80018001800180018001F2
:10326000000000000000000000000000000000005E
:10327000000000000000000000000000000000004E
:1032800000000000000000000000000000008001BD
:10329000800100010001800000000000000000002B
:1032A000000000000000000000000000000000001E
:1032B00000000000E007E007000000000000000040
:1032C00000000000000000000000000000000000FE
:1032D00000000000000000000000000000000000EE
:1032E0000000000000000000000000000000C0001E
:1032F000C000000000000000000000000000000C02
:10330000000C000600060006000300030003800313
:10331000800180018001C000C000C000600060002A
:103320000000000000000000000000000000E003BA
:10333000F007380E180C0C180C180C180C180C1878
:103340000C180C180C180C18180C380EF007E003A9
:10335000000000000000000000000000000000016C
:103360008001C001F0019801880180018001800185
:103370008001800180018001800180018001800145
:103380000000000000000000000000000000E0035A
:10339000F80F180C0C180C1800180018000C000678
:1033A00000038001C000600030001800FC1FFC1FFB
:1033B0000000000000000000000000000000E0012C
:1033C000F807180E0C0C0C0C000C0006C003C0070C
:1033D000000C001800180C180C18180CF807E00363
:1033E0000000000000000000000000000000000CD1
:1033F000000E000F000F800DC00C600C600C300C34
:10340000180C0C0CFC3FFC3F000C000C000C000CDA
:103410000000000000000000000000000000F80FA5
:10342000F80F180018000C00EC03FC071C0E001C21
:103430000018001800180C181C0C180EF807E003F0
:103440000000000000000000000000000000C007B5
:10345000F00F381C181818000C00CC03EC0F3C0EB1
:103460001C1C0C180C180C18181C380EF007E00364
:103470000000000000000000000000000000FC1F31
:10348000FC1F000C00060006000380038001C00141
:10349000C000E000600060007000300030003000CC
:1034A0000000000000000000000000000000E00339
:1034B000F007380E180C180C180C3806F007F00737
:1034C000180C0C180C180C180C18380CF80FE0031A
:1034D0000000000000000000000000000000E00309
:1034E000F007380E1C0C0C180C180C181C1C381E7D
:1034F000F81BE0190018000C000C1C0EF807F00176
:1035000000000000000000000000000000000000BB
:1035100000000000000000008001800100000000A9
:103520000000000000000000000000008001800199
:10353000000000000000000000000000000000008B
:103540000000000000000000800180010000000079
:103550000000000000000000000000008001800169
:1035600000010001800000000000000000000000D9
:103570000000000000000000000000000010001C1F
:10358000800FE003F8001800F800E003800F001C33
:10359000001000000000000000000000000000001B
:1035A000000000000000000000000000F81F000004
:1035B00000000000F81F00000000000000000000F4
:1035C00000000000000000000000000000000000FB
:1035D00000000000000000000000000008003800AB
:1035E000F001C007001F0018001FC007F0013800DD
:1035F0000800000000000000000000000000E003E0
:10360000F80F180C0C180C180018000C000600031A
:103610008001C000C000C00000000000C000C00069
:10362000000000000000000000000000000000009A
:10363000E00718180420C229224A11440944094409
:10364000094409221113E20C024004201818E00773
:1036500000000000000000000000000000008003E7
:103660008003C006C006C006600C600C301830181D
:103670003018F83FF83F1C700C600C6006C006C0A4
:103680000000000000000000000000000000FC033B
:10369000FC0F0C0C0C180C180C180C0CFC07FC0F75
:1036A0000C180C300C300C300C300C18FC1FFC07C4
:1036B0000000000000000000000000000000C00743
:1036C000F01F38381C300C7006600600060006003B
:1036D00006000600060006600C701C30F01FE007B4
:1036E0000000000000000000000000000000FE03D9
:1036F000FE0F060E06180618063006300630063095
:1037000006300630063006180618060EFE0FFE03B9
:103710000000000000000000000000000000FC3F6E
:10372000FC3F0C000C000C000C000C00FC1FFC1FEC
:103730000C000C000C000C000C000C00FC3FFC3FCB
:103740000000000000000000000000000000F83F42
:10375000F83F18001800180018001800F81FF81F8C
:103760001800180018001800180018001800180099
:103770000000000000000000000000000000E00F5A
:10378000F83F3C780E6006E007C00300030003FE2C
:1037900003FE03C007C006C00EC03CF0F83FE00FB8
:1037A00000000000000000000000000000000C30DD
:1037B0000C300C300C300C300C300C30FC3FFC3F2B
:1037C0000C300C300C300C300C300C300C300C3019
:1037D0000000000000000000000000000000800168
:1037E00080018001800180018001800180018001D1
:1037F00080018001800180018001800180018001C1
:1038000000000000000000000000000000000006B2
:103810000006000600060006000600060006000678
:10382000000600060006180618063807F003E00137
:103830000000000000000000000000000000063052
:103840000618060C060606038601C600660076000A
:10385000DE008E0106030606060C0618063006601A
:103860000000000000000000000000000000180040
:103870001800180018001800180018001800180088
:10388000180018001800180018001800F81FF81F7A
:1038900000000000000000000000000000000EE03A
:1038A0001EF01EF01EF036D836D836D836D866CC84
:1038B00066CC66CCC6C6C6C6C6C6C6C686C386C3E2
:1038C00000000000000000000000000000000C30BC
:1038D0001C303C303C306C306C30CC30CC308C31D7
:1038E0000C330C330C360C360C3C0C3C0C380C30C6
:1038F0000000000000000000000000000000E007E1
:10390000F81F1C380E70066003C003C003C003C05C
:1039100003C003C003C006600E701C38F81FE00728
:103920000000000000000000000000000000FC0F8C
:10393000FC1F0C380C300C300C300C300C18FC1FF9
:10394000FC070C000C000C000C000C000C000C0020
:103950000000000000000000000000000000E00780
:10396000F81F1C380E70066003E003C003C003C0DC
:1039700003C003C007E006630E3F1C3CF83FE0F7BE
:1039800000C0000000000000000000000000FE0F6A
:10399000FE1F06380630063006300638FE1FFE07CA
:1039A00006030606060C06180618063006300660E2
:1039B0000000000000000000000000000000E00324
:1039C000F80F1C0C0C180C180C001C00F803E00F6E
:1039D000001E0038063006300E301C1CF80FE007C1
:1039E0000000000000000000000000000000FE7F5A
:1039F000FE7F8001800180018001800180018001C3
:103A000080018001800180018001800180018001AE
:103A100000000000000000000000000000000C306A
:103A20000C300C300C300C300C300C300C300C30B6
:103A30000C300C300C300C300C301818F81FE0072C
:103A40000000000000000000000000000000036013
:103A50000630063006300C180C180C18180C180C10
:103A6000380E30063006700760036003C001C001E5
:103A700000000000000000000000000000000360E3
:103A8000C361C361C36166336633663366336633CD
:103A900066336C1B6C1B6C1B2C1A3C1E380E380ECC
:103AA00000000000000000000000000000000FE027
:103AB0000C7018303018700C600EC0078003800343
:103AC000C003E006700C301C18180C300E6007E0C4
:103AD000000000000000000000000000000003C023
:103AE00006600C301C383818300C6006E007C00344
:103AF00080018001800180018001800180018001BE
:103B00000000000000000000000000000000FC7F3A
:103B1000FC7F006000300018000C000600038001EC
:103B2000C0006000300018000C000600FE7FFE7F21
:103B30000000000000000000000000000000E003A2
:103B4000E0036000600060006000600060006000F2
:103B50006000600060006000600060006000600065
:103B6000600060006000E003E0030000000030003F
:103B70003000600060006000C000C000C000C001F4
:103B8000800180018001000300030003000600069D
:103B90000000000000000000000000000000E00342
:103BA000E00300030003000300030003000300031D
:103BB00000030003000300030003000300030003ED
:103BC000000300030003E003E00300000000000026
:103BD000C001C00160036003600330063006180CAA
:103BE000180C0000000000000000000000000000B1
:103BF00000000000000000000000000000000000C5
:103C000000000000000000000000000000000000B4
:103C10000000000000000000000000000000FFFFA6
:103C2000FFFF0000000000000000000000000C008A
:103C30000C000C000C000C000C0000000000000048
:103C40000000000000000000000000000000000074
:103C50000000000000000000000000000000000064
:103C60000000000000000000F003F8071C0C0C0C22
:103C7000000FF00FF80C0C0C0C0C1C0FF80FF018C8
:103C8000000000000000000000000000000018001C
:103C90001800180018001800D803F80F380C18186E
:103CA00018181818181818181818380CF80FD803FE
:103CB0000000000000000000000000000000000004
:103CC0000000000000000000C003F007300E180CD8
:103CD0001800180018001800180C300EF007C00368
:103CE00000000000000000000000000000000018BC
:103CF0000018001800180018C01BF01F301C1818FE
:103D000018181818181818181818301CF01FC01B8D
:103D100000000000000000000000000000000000A3
:103D20000000000000000000C003F00F300C181865
:103D3000F81FF81F180018003818301CF00FC007C3
:103D40000000000000000000000000000000800FE4
:103D5000C00FC000C000C000F007F007C000C000E6
:103D6000C000C000C000C000C000C000C000C00053
:103D70000000000000000000000000000000000043
:103D80000000000000000000E00DF80F180E0C0C01
:103D90000C0C0C0C0C0C0C0C0C0C180EF80FE00D91
:103DA000000C0C0C1C06F807F001000000001800C5
:103DB0001800180018001800D807F80F381C181839
:103DC0001818181818181818181818181818181873
:103DD0000000000000000000000000000000C00023
:103DE000C000000000000000C000C000C000C00013
:103DF000C000C000C000C000C000C000C000C000C3
:103E00000000000000000000000000000000C000F2
:103E1000C000000000000000C000C000C000C000E2
:103E2000C000C000C000C000C000C000C000C00092
:103E3000C000C000C000F8007800000000000C00C6
:103E40000C000C000C000C000C0C0C060C038C017C
:103E5000CC006C00FC009C018C030C030C060C0CC9
:103E60000000000000000000000000000000C00092
:103E7000C000C000C000C000C000C000C000C00042
:103E8000C000C000C000C000C000C000C000C00032
:103E90000000000000000000000000000000000022
:103EA00000000000000000007C3CFF7EC7E383C1EF
:103EB00083C183C183C183C183C183C183C183C1E2
:103EC00000000000000000000000000000000000F2
:103ED00000000000000000009807F80F381C1818B8
:103EE0001818181818181818181818181818181852
:103EF00000000000000000000000000000000000C2
:103F00000000000000000000C003F00F300C181883
:103F100018181818181818181818300CF00FC003B3
:103F20000000000000000000000000000000000091
:103F30000000000000000000D803F80F380C18182B
:103F400018181818181818181818380CF80FD8035B
:103F500018001800180018001800000000000000E9
:103F60000000000000000000C01BF01F301C1818EB
:103F700018181818181818181818301CF01FC01B1B
:103F800000180018001800180018000000000000B9
:103F90000000000000000000B007F00370003000D7
:103FA0003000300030003000300030003000300091
:103FB0000000000000000000000000000000000001
:103FC0000000000000000000E003F003380E180CB1
:103FD0003800F003C007000C180C380EF007E0039F
:103FE00000000000000000000000000000000000D1
:103FF0008000C000C000C000F007F007C000C00093
:10400000C000C000C000C000C000C000C0078007E2
:1040100000000000000000000000000000000000A0
:1040200000000000000000001818181818181818D0
:1040300018181818181818181818381CF01FE01934
:104040000000000000000000000000000000000070
:1040500000000000000000000C18180C180C180CD0
:10406000300630063006600360036003C001C00103
:104070000000000000000000000000000000000040
:104080000000000000000000C141C141C361636342
:10409000636363633636363636361C1C1C1C1C1CA8
:1040A0000000000000000000000000000000000010
:1040B00000000000000000001C38381C300C6006B6
:1040C00060036003600360036006300C381C1C381A
:1040D00000000000000000000000000000000000E0
:1040E0000000000000000000183030183018701870
:1040F000600C600CE00CC006C006800380038003E7
:1041000080018001C001F00070000000000000008C
:104110000000000000000000FC1FFC1F000C000657
:1041200000038001C000600030001800FC1FFC1F6D
:10413000000000000000000000000000000000037C
:104140008001C000C000C000C000C000C00060000E
:104150006000300060004000C000C000C000C0002F
:10416000C000C000800100030000000000008001CA
:104170008001800180018001800180018001800137
:104180008001800180018001800180018001800127
:10419000800180018001800180010000000060003A
:1041A000C000C00180018001800180018001000306
:1041B00000030006000300018001800180018001EE
:1041C00080018001C00060000000000000000000CD
:1041D000000000000000000000000000F010F81FC8
:1041E000080F0000000000000000000000000000B8
:1041F0000000000000000000000000001C42000859
:10420000000000200C0000003429000828420008AB
:104210000C00002084130000442900080000000066
:0842200000A24A040000FFFFA8
:04000005080001519D
:00000001FF
